{
  "contractName": "Remplissage",
  "abi": [
    {
      "inputs": [],
      "stateMutability": "nonpayable",
      "type": "constructor"
    },
    {
      "inputs": [
        {
          "internalType": "uint256",
          "name": "",
          "type": "uint256"
        }
      ],
      "name": "ALLS",
      "outputs": [
        {
          "internalType": "string",
          "name": "",
          "type": "string"
        }
      ],
      "stateMutability": "view",
      "type": "function",
      "constant": true
    },
    {
      "inputs": [],
      "name": "nextID",
      "outputs": [
        {
          "internalType": "uint256",
          "name": "",
          "type": "uint256"
        }
      ],
      "stateMutability": "view",
      "type": "function",
      "constant": true
    },
    {
      "inputs": [
        {
          "internalType": "uint256",
          "name": "",
          "type": "uint256"
        }
      ],
      "name": "operations2",
      "outputs": [
        {
          "internalType": "uint256",
          "name": "idOperation",
          "type": "uint256"
        },
        {
          "internalType": "uint256",
          "name": "poidsLait",
          "type": "uint256"
        },
        {
          "internalType": "string",
          "name": "dateOperation",
          "type": "string"
        },
        {
          "internalType": "string",
          "name": "typeOp",
          "type": "string"
        },
        {
          "internalType": "uint256",
          "name": "code",
          "type": "uint256"
        },
        {
          "internalType": "string",
          "name": "sender",
          "type": "string"
        },
        {
          "components": [
            {
              "internalType": "uint256",
              "name": "idCollecteur",
              "type": "uint256"
            },
            {
              "internalType": "string",
              "name": "nomCollecteur",
              "type": "string"
            },
            {
              "internalType": "string",
              "name": "adresse",
              "type": "string"
            },
            {
              "internalType": "uint256",
              "name": "tel",
              "type": "uint256"
            }
          ],
          "internalType": "struct Remplissage.Collecteur",
          "name": "collecteur",
          "type": "tuple"
        }
      ],
      "stateMutability": "view",
      "type": "function",
      "constant": true
    },
    {
      "inputs": [
        {
          "components": [
            {
              "internalType": "uint256",
              "name": "idOperation",
              "type": "uint256"
            },
            {
              "internalType": "uint256",
              "name": "poidsLait",
              "type": "uint256"
            },
            {
              "internalType": "string",
              "name": "dateOperation",
              "type": "string"
            },
            {
              "internalType": "string",
              "name": "typeOp",
              "type": "string"
            },
            {
              "internalType": "uint256",
              "name": "code",
              "type": "uint256"
            },
            {
              "internalType": "string",
              "name": "sender",
              "type": "string"
            },
            {
              "components": [
                {
                  "internalType": "uint256",
                  "name": "idCollecteur",
                  "type": "uint256"
                },
                {
                  "internalType": "string",
                  "name": "nomCollecteur",
                  "type": "string"
                },
                {
                  "internalType": "string",
                  "name": "adresse",
                  "type": "string"
                },
                {
                  "internalType": "uint256",
                  "name": "tel",
                  "type": "uint256"
                }
              ],
              "internalType": "struct Remplissage.Collecteur",
              "name": "collecteur",
              "type": "tuple"
            }
          ],
          "internalType": "struct Remplissage.Operation",
          "name": "op",
          "type": "tuple"
        }
      ],
      "name": "addOperation2",
      "outputs": [
        {
          "components": [
            {
              "internalType": "uint256",
              "name": "idOperation",
              "type": "uint256"
            },
            {
              "internalType": "uint256",
              "name": "poidsLait",
              "type": "uint256"
            },
            {
              "internalType": "string",
              "name": "dateOperation",
              "type": "string"
            },
            {
              "internalType": "string",
              "name": "typeOp",
              "type": "string"
            },
            {
              "internalType": "uint256",
              "name": "code",
              "type": "uint256"
            },
            {
              "internalType": "string",
              "name": "sender",
              "type": "string"
            },
            {
              "components": [
                {
                  "internalType": "uint256",
                  "name": "idCollecteur",
                  "type": "uint256"
                },
                {
                  "internalType": "string",
                  "name": "nomCollecteur",
                  "type": "string"
                },
                {
                  "internalType": "string",
                  "name": "adresse",
                  "type": "string"
                },
                {
                  "internalType": "uint256",
                  "name": "tel",
                  "type": "uint256"
                }
              ],
              "internalType": "struct Remplissage.Collecteur",
              "name": "collecteur",
              "type": "tuple"
            }
          ],
          "internalType": "struct Remplissage.Operation",
          "name": "op0",
          "type": "tuple"
        }
      ],
      "stateMutability": "nonpayable",
      "type": "function"
    },
    {
      "inputs": [],
      "name": "getOperations",
      "outputs": [
        {
          "components": [
            {
              "internalType": "uint256",
              "name": "idOperation",
              "type": "uint256"
            },
            {
              "internalType": "uint256",
              "name": "poidsLait",
              "type": "uint256"
            },
            {
              "internalType": "string",
              "name": "dateOperation",
              "type": "string"
            },
            {
              "internalType": "string",
              "name": "typeOp",
              "type": "string"
            },
            {
              "internalType": "uint256",
              "name": "code",
              "type": "uint256"
            },
            {
              "internalType": "string",
              "name": "sender",
              "type": "string"
            },
            {
              "components": [
                {
                  "internalType": "uint256",
                  "name": "idCollecteur",
                  "type": "uint256"
                },
                {
                  "internalType": "string",
                  "name": "nomCollecteur",
                  "type": "string"
                },
                {
                  "internalType": "string",
                  "name": "adresse",
                  "type": "string"
                },
                {
                  "internalType": "uint256",
                  "name": "tel",
                  "type": "uint256"
                }
              ],
              "internalType": "struct Remplissage.Collecteur",
              "name": "collecteur",
              "type": "tuple"
            }
          ],
          "internalType": "struct Remplissage.Operation[]",
          "name": "result",
          "type": "tuple[]"
        }
      ],
      "stateMutability": "view",
      "type": "function",
      "constant": true
    },
    {
      "inputs": [
        {
          "internalType": "uint256",
          "name": "id",
          "type": "uint256"
        }
      ],
      "name": "getOperation",
      "outputs": [
        {
          "components": [
            {
              "internalType": "uint256",
              "name": "idOperation",
              "type": "uint256"
            },
            {
              "internalType": "uint256",
              "name": "poidsLait",
              "type": "uint256"
            },
            {
              "internalType": "string",
              "name": "dateOperation",
              "type": "string"
            },
            {
              "internalType": "string",
              "name": "typeOp",
              "type": "string"
            },
            {
              "internalType": "uint256",
              "name": "code",
              "type": "uint256"
            },
            {
              "internalType": "string",
              "name": "sender",
              "type": "string"
            },
            {
              "components": [
                {
                  "internalType": "uint256",
                  "name": "idCollecteur",
                  "type": "uint256"
                },
                {
                  "internalType": "string",
                  "name": "nomCollecteur",
                  "type": "string"
                },
                {
                  "internalType": "string",
                  "name": "adresse",
                  "type": "string"
                },
                {
                  "internalType": "uint256",
                  "name": "tel",
                  "type": "uint256"
                }
              ],
              "internalType": "struct Remplissage.Collecteur",
              "name": "collecteur",
              "type": "tuple"
            }
          ],
          "internalType": "struct Remplissage.Operation",
          "name": "operation",
          "type": "tuple"
        }
      ],
      "stateMutability": "view",
      "type": "function",
      "constant": true
    }
  ],
  "bytecode": "0x6080604052600160025534801561001557600080fd5b5061193d806100256000396000f3fe608060405234801561001057600080fd5b50600436106100625760003560e01c80631e96917d14610067578063202e3924146100855780635383bbfd146100b5578063649b82a8146100e5578063996ba7bb14610115578063f948e50a1461014b575b600080fd5b61006f610169565b60405161007c9190610f40565b60405180910390f35b61009f600480360381019061009a9190610f9b565b61016f565b6040516100ac919061118b565b60405180910390f35b6100cf60048036038101906100ca9190610f9b565b610520565b6040516100dc91906111f7565b60405180910390f35b6100ff60048036038101906100fa919061152c565b6105cc565b60405161010c919061118b565b60405180910390f35b61012f600480360381019061012a9190610f9b565b61076e565b60405161014297969594939291906115df565b60405180910390f35b610153610a9a565b60405161016091906117dd565b60405180910390f35b60025481565b610177610e19565b60005b600254811015610519578260008281548110610199576101986117ff565b5b90600052602060002090600a020160000154141561050657600081815481106101c5576101c46117ff565b5b90600052602060002090600a02016040518060e001604052908160008201548152602001600182015481526020016002820180546102029061185d565b80601f016020809104026020016040519081016040528092919081815260200182805461022e9061185d565b801561027b5780601f106102505761010080835404028352916020019161027b565b820191906000526020600020905b81548152906001019060200180831161025e57829003601f168201915b505050505081526020016003820180546102949061185d565b80601f01602080910402602001604051908101604052809291908181526020018280546102c09061185d565b801561030d5780601f106102e25761010080835404028352916020019161030d565b820191906000526020600020905b8154815290600101906020018083116102f057829003601f168201915b50505050508152602001600482015481526020016005820180546103309061185d565b80601f016020809104026020016040519081016040528092919081815260200182805461035c9061185d565b80156103a95780601f1061037e576101008083540402835291602001916103a9565b820191906000526020600020905b81548152906001019060200180831161038c57829003601f168201915b5050505050815260200160068201604051806080016040529081600082015481526020016001820180546103dc9061185d565b80601f01602080910402602001604051908101604052809291908181526020018280546104089061185d565b80156104555780601f1061042a57610100808354040283529160200191610455565b820191906000526020600020905b81548152906001019060200180831161043857829003601f168201915b5050505050815260200160028201805461046e9061185d565b80601f016020809104026020016040519081016040528092919081815260200182805461049a9061185d565b80156104e75780601f106104bc576101008083540402835291602001916104e7565b820191906000526020600020905b8154815290600101906020018083116104ca57829003601f168201915b505050505081526020016003820154815250508152505091505061051b565b8080610511906118be565b91505061017a565b505b919050565b6001818154811061053057600080fd5b90600052602060002001600091509050805461054b9061185d565b80601f01602080910402602001604051908101604052809291908181526020018280546105779061185d565b80156105c45780601f10610599576101008083540402835291602001916105c4565b820191906000526020600020905b8154815290600101906020018083116105a757829003601f168201915b505050505081565b6105d4610e19565b600060405180608001604052808460c001516000015181526020018460c001516020015181526020018460c001516040015181526020018460c0015160600151815250905060006040518060e0016040528085600001518152602001856020015181526020018560400151815260200185606001518152602001856080015181526020018560a00151815260200183815250905060008190806001815401808255809150506001900390600052602060002090600a0201600090919091909150600082015181600001556020820151816001015560408201518160020190805190602001906106c4929190610e5c565b5060608201518160030190805190602001906106e1929190610e5c565b506080820151816004015560a0820151816005019080519060200190610708929190610e5c565b5060c082015181600601600082015181600001556020820151816001019080519060200190610738929190610e5c565b506040820151816002019080519060200190610755929190610e5c565b5060608201518160030155505050508092505050919050565b6000818154811061077e57600080fd5b90600052602060002090600a02016000915090508060000154908060010154908060020180546107ad9061185d565b80601f01602080910402602001604051908101604052809291908181526020018280546107d99061185d565b80156108265780601f106107fb57610100808354040283529160200191610826565b820191906000526020600020905b81548152906001019060200180831161080957829003601f168201915b50505050509080600301805461083b9061185d565b80601f01602080910402602001604051908101604052809291908181526020018280546108679061185d565b80156108b45780601f10610889576101008083540402835291602001916108b4565b820191906000526020600020905b81548152906001019060200180831161089757829003601f168201915b5050505050908060040154908060050180546108cf9061185d565b80601f01602080910402602001604051908101604052809291908181526020018280546108fb9061185d565b80156109485780601f1061091d57610100808354040283529160200191610948565b820191906000526020600020905b81548152906001019060200180831161092b57829003601f168201915b50505050509080600601604051806080016040529081600082015481526020016001820180546109779061185d565b80601f01602080910402602001604051908101604052809291908181526020018280546109a39061185d565b80156109f05780601f106109c5576101008083540402835291602001916109f0565b820191906000526020600020905b8154815290600101906020018083116109d357829003601f168201915b50505050508152602001600282018054610a099061185d565b80601f0160208091040260200160405190810160405280929190818152602001828054610a359061185d565b8015610a825780601f10610a5757610100808354040283529160200191610a82565b820191906000526020600020905b815481529060010190602001808311610a6557829003601f168201915b50505050508152602001600382015481525050905087565b60606000805480602002602001604051908101604052809291908181526020016000905b82821015610e1057838290600052602060002090600a02016040518060e00160405290816000820154815260200160018201548152602001600282018054610b059061185d565b80601f0160208091040260200160405190810160405280929190818152602001828054610b319061185d565b8015610b7e5780601f10610b5357610100808354040283529160200191610b7e565b820191906000526020600020905b815481529060010190602001808311610b6157829003601f168201915b50505050508152602001600382018054610b979061185d565b80601f0160208091040260200160405190810160405280929190818152602001828054610bc39061185d565b8015610c105780601f10610be557610100808354040283529160200191610c10565b820191906000526020600020905b815481529060010190602001808311610bf357829003601f168201915b5050505050815260200160048201548152602001600582018054610c339061185d565b80601f0160208091040260200160405190810160405280929190818152602001828054610c5f9061185d565b8015610cac5780601f10610c8157610100808354040283529160200191610cac565b820191906000526020600020905b815481529060010190602001808311610c8f57829003601f168201915b505050505081526020016006820160405180608001604052908160008201548152602001600182018054610cdf9061185d565b80601f0160208091040260200160405190810160405280929190818152602001828054610d0b9061185d565b8015610d585780601f10610d2d57610100808354040283529160200191610d58565b820191906000526020600020905b815481529060010190602001808311610d3b57829003601f168201915b50505050508152602001600282018054610d719061185d565b80601f0160208091040260200160405190810160405280929190818152602001828054610d9d9061185d565b8015610dea5780601f10610dbf57610100808354040283529160200191610dea565b820191906000526020600020905b815481529060010190602001808311610dcd57829003601f168201915b505050505081526020016003820154815250508152505081526020019060010190610abe565b50505050905090565b6040518060e00160405280600081526020016000815260200160608152602001606081526020016000815260200160608152602001610e56610ee2565b81525090565b828054610e689061185d565b90600052602060002090601f016020900481019282610e8a5760008555610ed1565b82601f10610ea357805160ff1916838001178555610ed1565b82800160010185558215610ed1579182015b82811115610ed0578251825591602001919060010190610eb5565b5b509050610ede9190610f0a565b5090565b6040518060800160405280600081526020016060815260200160608152602001600081525090565b5b80821115610f23576000816000905550600101610f0b565b5090565b6000819050919050565b610f3a81610f27565b82525050565b6000602082019050610f556000830184610f31565b92915050565b6000604051905090565b600080fd5b600080fd5b610f7881610f27565b8114610f8357600080fd5b50565b600081359050610f9581610f6f565b92915050565b600060208284031215610fb157610fb0610f65565b5b6000610fbf84828501610f86565b91505092915050565b610fd181610f27565b82525050565b600081519050919050565b600082825260208201905092915050565b60005b83811015611011578082015181840152602081019050610ff6565b83811115611020576000848401525b50505050565b6000601f19601f8301169050919050565b600061104282610fd7565b61104c8185610fe2565b935061105c818560208601610ff3565b61106581611026565b840191505092915050565b60006080830160008301516110886000860182610fc8565b50602083015184820360208601526110a08282611037565b915050604083015184820360408601526110ba8282611037565b91505060608301516110cf6060860182610fc8565b508091505092915050565b600060e0830160008301516110f26000860182610fc8565b5060208301516111056020860182610fc8565b506040830151848203604086015261111d8282611037565b915050606083015184820360608601526111378282611037565b915050608083015161114c6080860182610fc8565b5060a083015184820360a08601526111648282611037565b91505060c083015184820360c086015261117e8282611070565b9150508091505092915050565b600060208201905081810360008301526111a581846110da565b905092915050565b600082825260208201905092915050565b60006111c982610fd7565b6111d381856111ad565b93506111e3818560208601610ff3565b6111ec81611026565b840191505092915050565b6000602082019050818103600083015261121181846111be565b905092915050565b600080fd5b7f4e487b7100000000000000000000000000000000000000000000000000000000600052604160045260246000fd5b61125682611026565b810181811067ffffffffffffffff821117156112755761127461121e565b5b80604052505050565b6000611288610f5b565b9050611294828261124d565b919050565b600080fd5b600080fd5b600080fd5b600067ffffffffffffffff8211156112c3576112c261121e565b5b6112cc82611026565b9050602081019050919050565b82818337600083830152505050565b60006112fb6112f6846112a8565b61127e565b905082815260208101848484011115611317576113166112a3565b5b6113228482856112d9565b509392505050565b600082601f83011261133f5761133e61129e565b5b813561134f8482602086016112e8565b91505092915050565b60006080828403121561136e5761136d611219565b5b611378608061127e565b9050600061138884828501610f86565b600083015250602082013567ffffffffffffffff8111156113ac576113ab611299565b5b6113b88482850161132a565b602083015250604082013567ffffffffffffffff8111156113dc576113db611299565b5b6113e88482850161132a565b60408301525060606113fc84828501610f86565b60608301525092915050565b600060e0828403121561141e5761141d611219565b5b61142860e061127e565b9050600061143884828501610f86565b600083015250602061144c84828501610f86565b602083015250604082013567ffffffffffffffff8111156114705761146f611299565b5b61147c8482850161132a565b604083015250606082013567ffffffffffffffff8111156114a05761149f611299565b5b6114ac8482850161132a565b60608301525060806114c084828501610f86565b60808301525060a082013567ffffffffffffffff8111156114e4576114e3611299565b5b6114f08482850161132a565b60a08301525060c082013567ffffffffffffffff81111561151457611513611299565b5b61152084828501611358565b60c08301525092915050565b60006020828403121561154257611541610f65565b5b600082013567ffffffffffffffff8111156115605761155f610f6a565b5b61156c84828501611408565b91505092915050565b600060808301600083015161158d6000860182610fc8565b50602083015184820360208601526115a58282611037565b915050604083015184820360408601526115bf8282611037565b91505060608301516115d46060860182610fc8565b508091505092915050565b600060e0820190506115f4600083018a610f31565b6116016020830189610f31565b818103604083015261161381886111be565b9050818103606083015261162781876111be565b90506116366080830186610f31565b81810360a083015261164881856111be565b905081810360c083015261165c8184611575565b905098975050505050505050565b600081519050919050565b600082825260208201905092915050565b6000819050602082019050919050565b600060e0830160008301516116ae6000860182610fc8565b5060208301516116c16020860182610fc8565b50604083015184820360408601526116d98282611037565b915050606083015184820360608601526116f38282611037565b91505060808301516117086080860182610fc8565b5060a083015184820360a08601526117208282611037565b91505060c083015184820360c086015261173a8282611070565b9150508091505092915050565b60006117538383611696565b905092915050565b6000602082019050919050565b60006117738261166a565b61177d8185611675565b93508360208202850161178f85611686565b8060005b858110156117cb57848403895281516117ac8582611747565b94506117b78361175b565b925060208a01995050600181019050611793565b50829750879550505050505092915050565b600060208201905081810360008301526117f78184611768565b905092915050565b7f4e487b7100000000000000000000000000000000000000000000000000000000600052603260045260246000fd5b7f4e487b7100000000000000000000000000000000000000000000000000000000600052602260045260246000fd5b6000600282049050600182168061187557607f821691505b602082108114156118895761188861182e565b5b50919050565b7f4e487b7100000000000000000000000000000000000000000000000000000000600052601160045260246000fd5b60006118c982610f27565b91507fffffffffffffffffffffffffffffffffffffffffffffffffffffffffffffffff8214156118fc576118fb61188f565b5b60018201905091905056fea26469706673582212200f45d6e0efcf41668daf60ef9bf88f3fccdb37e4bb56ae2acc47971bb4f17f4f64736f6c634300080b0033",
  "immutableReferences": {},
  "source": "// SPDX-License-Identifier: MIT\r\npragma solidity >=0.4.22 <0.9.0;\r\ncontract Remplissage{\r\n\r\n    struct Tank{\r\n      uint idTank;\r\n string matricule;\r\n uint poidVide;\r\n  uint poidActuel;\r\n string etat ;\r\n\r\n   }\r\n\r\nstruct Operation{\r\n  uint idOperation;\r\n  uint  poidsLait;\r\n  string  dateOperation ;\r\n  string typeOp ;\r\n  uint  code;\r\n  string sender;\r\n // uint tank ;\r\n  Collecteur collecteur;\r\n\r\n   }\r\n\r\nstruct Collecteur{\r\n  uint idCollecteur;\r\n  string  nomCollecteur ;\r\n  string adresse ;\r\n  uint  tel;\r\n   }\r\n\r\n\r\n   constructor() {\r\n  }\r\nOperation[] public operations2;\r\n\r\nstring[] public ALLS;\r\nuint256 public nextID = 1;\r\n//create 2\r\n  function addOperation2(Operation memory op)\r\n   public returns (Operation memory op0) {\r\n   /*  Agriculteur memory newAgriculteur = Agriculteur(op.agriculteur.idAgriculteur\r\n     ,op.agriculteur.nomAgriculteur,op.agriculteur.prenomAgriculteur\r\n     ,op.agriculteur.typee,op.agriculteur.username,op.agriculteur.password);*/\r\n\r\n\r\n     Collecteur memory newCollecteur = Collecteur(op.collecteur.idCollecteur, \r\n     op.collecteur.nomCollecteur\r\n     ,op.collecteur.adresse,op.collecteur.tel);\r\n\r\n    Operation memory newOperation = Operation(op.idOperation,op.poidsLait, \r\n    op.dateOperation,op.typeOp,op.code,op.sender,newCollecteur);\r\n    operations2.push(newOperation);\r\n    return (newOperation);\r\n  }\r\n  //get all operations \r\n  \r\n  function getOperations() public view returns (Operation[] memory result ) {\r\n    return operations2;\r\n  }\r\n\r\n//get one operation\r\n\r\n function getOperation(uint id) public view returns(Operation memory operation) {\r\n    for(uint i = 0; i<nextID;i++) {\r\n      if(operations2[i].idOperation==id) {\r\n        return operations2[i];\r\n      }\r\n    }\r\n  }\r\n\r\n}",
  "sourcePath": "C:\\Users\\ASUS\\Desktop\\pfe\\PFE_Project2022\\PFE-FrontEnd\\contracts\\Remplissage.sol",
  "compiler": {
    "name": "solc",
    "version": "0.8.11+commit.d7f03943.Emscripten.clang"
  },
  "schemaVersion": "3.4.5",
  "updatedAt": "2022-04-15T10:45:20.207Z",
  "networkType": "ethereum",
  "devdoc": {
    "kind": "dev",
    "methods": {},
    "version": 1
  },
  "userdoc": {
    "kind": "user",
    "methods": {},
    "version": 1
  }
}