{
  "contractName": "Remplissage",
  "abi": [
    {
      "inputs": [],
      "stateMutability": "nonpayable",
      "type": "constructor"
    },
    {
      "inputs": [],
      "name": "nextID",
      "outputs": [
        {
          "internalType": "uint256",
          "name": "",
          "type": "uint256"
        }
      ],
      "stateMutability": "view",
      "type": "function",
      "constant": true
    },
    {
      "inputs": [
        {
          "internalType": "uint256",
          "name": "",
          "type": "uint256"
        }
      ],
      "name": "operations",
      "outputs": [
        {
          "internalType": "uint256",
          "name": "idOperation",
          "type": "uint256"
        },
        {
          "internalType": "uint256",
          "name": "poidsLait",
          "type": "uint256"
        },
        {
          "internalType": "string",
          "name": "dateOperation",
          "type": "string"
        },
        {
          "internalType": "string",
          "name": "typeOp",
          "type": "string"
        },
        {
          "internalType": "uint256",
          "name": "code",
          "type": "uint256"
        },
        {
          "internalType": "uint256",
          "name": "tank",
          "type": "uint256"
        }
      ],
      "stateMutability": "view",
      "type": "function",
      "constant": true
    },
    {
      "inputs": [
        {
          "internalType": "uint256",
          "name": "",
          "type": "uint256"
        }
      ],
      "name": "operations2",
      "outputs": [
        {
          "internalType": "uint256",
          "name": "idOperation",
          "type": "uint256"
        },
        {
          "internalType": "uint256",
          "name": "poidsLait",
          "type": "uint256"
        },
        {
          "internalType": "string",
          "name": "dateOperation",
          "type": "string"
        },
        {
          "internalType": "string",
          "name": "typeOp",
          "type": "string"
        },
        {
          "internalType": "uint256",
          "name": "code",
          "type": "uint256"
        },
        {
          "internalType": "uint256",
          "name": "tank",
          "type": "uint256"
        }
      ],
      "stateMutability": "view",
      "type": "function",
      "constant": true
    },
    {
      "inputs": [
        {
          "components": [
            {
              "internalType": "uint256",
              "name": "idOperation",
              "type": "uint256"
            },
            {
              "internalType": "uint256",
              "name": "poidsLait",
              "type": "uint256"
            },
            {
              "internalType": "string",
              "name": "dateOperation",
              "type": "string"
            },
            {
              "internalType": "string",
              "name": "typeOp",
              "type": "string"
            },
            {
              "internalType": "uint256",
              "name": "code",
              "type": "uint256"
            },
            {
              "internalType": "uint256",
              "name": "tank",
              "type": "uint256"
            }
          ],
          "internalType": "struct Remplissage.Operation",
          "name": "op",
          "type": "tuple"
        }
      ],
      "name": "addOperation2",
      "outputs": [
        {
          "components": [
            {
              "internalType": "uint256",
              "name": "idOperation",
              "type": "uint256"
            },
            {
              "internalType": "uint256",
              "name": "poidsLait",
              "type": "uint256"
            },
            {
              "internalType": "string",
              "name": "dateOperation",
              "type": "string"
            },
            {
              "internalType": "string",
              "name": "typeOp",
              "type": "string"
            },
            {
              "internalType": "uint256",
              "name": "code",
              "type": "uint256"
            },
            {
              "internalType": "uint256",
              "name": "tank",
              "type": "uint256"
            }
          ],
          "internalType": "struct Remplissage.Operation",
          "name": "op0",
          "type": "tuple"
        }
      ],
      "stateMutability": "nonpayable",
      "type": "function"
    },
    {
      "inputs": [
        {
          "internalType": "uint256",
          "name": "poidsLait",
          "type": "uint256"
        },
        {
          "internalType": "string",
          "name": "dateOperation",
          "type": "string"
        },
        {
          "internalType": "string",
          "name": "typeOp",
          "type": "string"
        },
        {
          "internalType": "uint256",
          "name": "code",
          "type": "uint256"
        },
        {
          "internalType": "uint256",
          "name": "tank",
          "type": "uint256"
        }
      ],
      "name": "addOperation",
      "outputs": [
        {
          "internalType": "uint256",
          "name": "idOperation0",
          "type": "uint256"
        },
        {
          "internalType": "uint256",
          "name": "poidsLait0",
          "type": "uint256"
        },
        {
          "internalType": "string",
          "name": "dateOperation0",
          "type": "string"
        },
        {
          "internalType": "string",
          "name": "typeOp0",
          "type": "string"
        },
        {
          "internalType": "uint256",
          "name": "code0",
          "type": "uint256"
        },
        {
          "internalType": "uint256",
          "name": "tank0",
          "type": "uint256"
        }
      ],
      "stateMutability": "nonpayable",
      "type": "function"
    },
    {
      "inputs": [],
      "name": "getOperations",
      "outputs": [
        {
          "components": [
            {
              "internalType": "uint256",
              "name": "idOperation",
              "type": "uint256"
            },
            {
              "internalType": "uint256",
              "name": "poidsLait",
              "type": "uint256"
            },
            {
              "internalType": "string",
              "name": "dateOperation",
              "type": "string"
            },
            {
              "internalType": "string",
              "name": "typeOp",
              "type": "string"
            },
            {
              "internalType": "uint256",
              "name": "code",
              "type": "uint256"
            },
            {
              "internalType": "uint256",
              "name": "tank",
              "type": "uint256"
            }
          ],
          "internalType": "struct Remplissage.Operation[]",
          "name": "result",
          "type": "tuple[]"
        }
      ],
      "stateMutability": "view",
      "type": "function",
      "constant": true
    },
    {
      "inputs": [
        {
          "internalType": "uint256",
          "name": "id",
          "type": "uint256"
        }
      ],
      "name": "getOperation",
      "outputs": [
        {
          "components": [
            {
              "internalType": "uint256",
              "name": "idOperation",
              "type": "uint256"
            },
            {
              "internalType": "uint256",
              "name": "poidsLait",
              "type": "uint256"
            },
            {
              "internalType": "string",
              "name": "dateOperation",
              "type": "string"
            },
            {
              "internalType": "string",
              "name": "typeOp",
              "type": "string"
            },
            {
              "internalType": "uint256",
              "name": "code",
              "type": "uint256"
            },
            {
              "internalType": "uint256",
              "name": "tank",
              "type": "uint256"
            }
          ],
          "internalType": "struct Remplissage.Operation",
          "name": "operation",
          "type": "tuple"
        }
      ],
      "stateMutability": "view",
      "type": "function",
      "constant": true
    }
  ],
  "bytecode": "0x6080604052600160025534801561001557600080fd5b50611311806100256000396000f3fe608060405234801561001057600080fd5b506004361061007d5760003560e01c8063202e39241161005b578063202e392414610105578063996ba7bb14610135578063b2e9949d1461016a578063f948e50a1461019f5761007d565b80630717c305146100825780630a222e3a146100b25780631e96917d146100e7575b600080fd5b61009c60048036038101906100979190610d0a565b6101bd565b6040516100a99190610e7a565b60405180910390f35b6100cc60048036038101906100c79190610e9c565b61025d565b6040516100de96959493929190610fa8565b60405180910390f35b6100ef610379565b6040516100fc9190611017565b60405180910390f35b61011f600480360381019061011a9190611032565b61037f565b60405161012c9190610e7a565b60405180910390f35b61014f600480360381019061014a9190611032565b61055c565b60405161016196959493929190610fa8565b60405180910390f35b610184600480360381019061017f9190611032565b6106b8565b60405161019696959493929190610fa8565b60405180910390f35b6101a7610814565b6040516101b491906111b1565b60405180910390f35b6101c56109bf565b6000829080600181540180825580915050600190039060005260206000209060060201600090919091909150600082015181600001556020820151816001015560408201518160020190805190602001906102219291906109f5565b50606082015181600301908051906020019061023e9291906109f5565b506080820151816004015560a082015181600501555050819050919050565b6000806060806000806002600081548092919061027990611202565b919050555060006040518060c0016040528060025481526020018d81526020018c81526020018b81526020018a815260200189815250905060018190806001815401808255809150506001900390600052602060002090600602016000909190919091506000820151816000015560208201518160010155604082015181600201908051906020019061030d9291906109f5565b50606082015181600301908051906020019061032a9291906109f5565b506080820151816004015560a082015181600501555050806000015181602001518260400151836060015184608001518560a00151965096509650965096509650509550955095509550955095565b60025481565b6103876109bf565b60005b6002548110156105555782600182815481106103a9576103a861124b565b5b906000526020600020906006020160000154141561054257600181815481106103d5576103d461124b565b5b90600052602060002090600602016040518060c00160405290816000820154815260200160018201548152602001600282018054610412906112a9565b80601f016020809104026020016040519081016040528092919081815260200182805461043e906112a9565b801561048b5780601f106104605761010080835404028352916020019161048b565b820191906000526020600020905b81548152906001019060200180831161046e57829003601f168201915b505050505081526020016003820180546104a4906112a9565b80601f01602080910402602001604051908101604052809291908181526020018280546104d0906112a9565b801561051d5780601f106104f25761010080835404028352916020019161051d565b820191906000526020600020905b81548152906001019060200180831161050057829003601f168201915b5050505050815260200160048201548152602001600582015481525050915050610557565b808061054d90611202565b91505061038a565b505b919050565b6000818154811061056c57600080fd5b906000526020600020906006020160009150905080600001549080600101549080600201805461059b906112a9565b80601f01602080910402602001604051908101604052809291908181526020018280546105c7906112a9565b80156106145780601f106105e957610100808354040283529160200191610614565b820191906000526020600020905b8154815290600101906020018083116105f757829003601f168201915b505050505090806003018054610629906112a9565b80601f0160208091040260200160405190810160405280929190818152602001828054610655906112a9565b80156106a25780601f10610677576101008083540402835291602001916106a2565b820191906000526020600020905b81548152906001019060200180831161068557829003601f168201915b5050505050908060040154908060050154905086565b600181815481106106c857600080fd5b90600052602060002090600602016000915090508060000154908060010154908060020180546106f7906112a9565b80601f0160208091040260200160405190810160405280929190818152602001828054610723906112a9565b80156107705780601f1061074557610100808354040283529160200191610770565b820191906000526020600020905b81548152906001019060200180831161075357829003601f168201915b505050505090806003018054610785906112a9565b80601f01602080910402602001604051908101604052809291908181526020018280546107b1906112a9565b80156107fe5780601f106107d3576101008083540402835291602001916107fe565b820191906000526020600020905b8154815290600101906020018083116107e157829003601f168201915b5050505050908060040154908060050154905086565b60606001805480602002602001604051908101604052809291908181526020016000905b828210156109b657838290600052602060002090600602016040518060c0016040529081600082015481526020016001820154815260200160028201805461087f906112a9565b80601f01602080910402602001604051908101604052809291908181526020018280546108ab906112a9565b80156108f85780601f106108cd576101008083540402835291602001916108f8565b820191906000526020600020905b8154815290600101906020018083116108db57829003601f168201915b50505050508152602001600382018054610911906112a9565b80601f016020809104026020016040519081016040528092919081815260200182805461093d906112a9565b801561098a5780601f1061095f5761010080835404028352916020019161098a565b820191906000526020600020905b81548152906001019060200180831161096d57829003601f168201915b505050505081526020016004820154815260200160058201548152505081526020019060010190610838565b50505050905090565b6040518060c001604052806000815260200160008152602001606081526020016060815260200160008152602001600081525090565b828054610a01906112a9565b90600052602060002090601f016020900481019282610a235760008555610a6a565b82601f10610a3c57805160ff1916838001178555610a6a565b82800160010185558215610a6a579182015b82811115610a69578251825591602001919060010190610a4e565b5b509050610a779190610a7b565b5090565b5b80821115610a94576000816000905550600101610a7c565b5090565b6000604051905090565b600080fd5b600080fd5b600080fd5b6000601f19601f8301169050919050565b7f4e487b7100000000000000000000000000000000000000000000000000000000600052604160045260246000fd5b610afa82610ab1565b810181811067ffffffffffffffff82111715610b1957610b18610ac2565b5b80604052505050565b6000610b2c610a98565b9050610b388282610af1565b919050565b600080fd5b6000819050919050565b610b5581610b42565b8114610b6057600080fd5b50565b600081359050610b7281610b4c565b92915050565b600080fd5b600080fd5b600067ffffffffffffffff821115610b9d57610b9c610ac2565b5b610ba682610ab1565b9050602081019050919050565b82818337600083830152505050565b6000610bd5610bd084610b82565b610b22565b905082815260208101848484011115610bf157610bf0610b7d565b5b610bfc848285610bb3565b509392505050565b600082601f830112610c1957610c18610b78565b5b8135610c29848260208601610bc2565b91505092915050565b600060c08284031215610c4857610c47610aac565b5b610c5260c0610b22565b90506000610c6284828501610b63565b6000830152506020610c7684828501610b63565b602083015250604082013567ffffffffffffffff811115610c9a57610c99610b3d565b5b610ca684828501610c04565b604083015250606082013567ffffffffffffffff811115610cca57610cc9610b3d565b5b610cd684828501610c04565b6060830152506080610cea84828501610b63565b60808301525060a0610cfe84828501610b63565b60a08301525092915050565b600060208284031215610d2057610d1f610aa2565b5b600082013567ffffffffffffffff811115610d3e57610d3d610aa7565b5b610d4a84828501610c32565b91505092915050565b610d5c81610b42565b82525050565b600081519050919050565b600082825260208201905092915050565b60005b83811015610d9c578082015181840152602081019050610d81565b83811115610dab576000848401525b50505050565b6000610dbc82610d62565b610dc68185610d6d565b9350610dd6818560208601610d7e565b610ddf81610ab1565b840191505092915050565b600060c083016000830151610e026000860182610d53565b506020830151610e156020860182610d53565b5060408301518482036040860152610e2d8282610db1565b91505060608301518482036060860152610e478282610db1565b9150506080830151610e5c6080860182610d53565b5060a0830151610e6f60a0860182610d53565b508091505092915050565b60006020820190508181036000830152610e948184610dea565b905092915050565b600080600080600060a08688031215610eb857610eb7610aa2565b5b6000610ec688828901610b63565b955050602086013567ffffffffffffffff811115610ee757610ee6610aa7565b5b610ef388828901610c04565b945050604086013567ffffffffffffffff811115610f1457610f13610aa7565b5b610f2088828901610c04565b9350506060610f3188828901610b63565b9250506080610f4288828901610b63565b9150509295509295909350565b610f5881610b42565b82525050565b600082825260208201905092915050565b6000610f7a82610d62565b610f848185610f5e565b9350610f94818560208601610d7e565b610f9d81610ab1565b840191505092915050565b600060c082019050610fbd6000830189610f4f565b610fca6020830188610f4f565b8181036040830152610fdc8187610f6f565b90508181036060830152610ff08186610f6f565b9050610fff6080830185610f4f565b61100c60a0830184610f4f565b979650505050505050565b600060208201905061102c6000830184610f4f565b92915050565b60006020828403121561104857611047610aa2565b5b600061105684828501610b63565b91505092915050565b600081519050919050565b600082825260208201905092915050565b6000819050602082019050919050565b600060c0830160008301516110a36000860182610d53565b5060208301516110b66020860182610d53565b50604083015184820360408601526110ce8282610db1565b915050606083015184820360608601526110e88282610db1565b91505060808301516110fd6080860182610d53565b5060a083015161111060a0860182610d53565b508091505092915050565b6000611127838361108b565b905092915050565b6000602082019050919050565b60006111478261105f565b611151818561106a565b9350836020820285016111638561107b565b8060005b8581101561119f5784840389528151611180858261111b565b945061118b8361112f565b925060208a01995050600181019050611167565b50829750879550505050505092915050565b600060208201905081810360008301526111cb818461113c565b905092915050565b7f4e487b7100000000000000000000000000000000000000000000000000000000600052601160045260246000fd5b600061120d82610b42565b91507fffffffffffffffffffffffffffffffffffffffffffffffffffffffffffffffff8214156112405761123f6111d3565b5b600182019050919050565b7f4e487b7100000000000000000000000000000000000000000000000000000000600052603260045260246000fd5b7f4e487b7100000000000000000000000000000000000000000000000000000000600052602260045260246000fd5b600060028204905060018216806112c157607f821691505b602082108114156112d5576112d461127a565b5b5091905056fea2646970667358221220ee2f71662af046613107437c7e9a9e554102b8be183243a24538a28495ba450464736f6c634300080b0033",
  "immutableReferences": {},
  "source": "// SPDX-License-Identifier: MIT\r\npragma solidity >=0.4.22 <0.9.0;\r\ncontract Remplissage{\r\n\r\n    struct Tank{\r\n      uint idTank;\r\n string matricule;\r\n uint poidVide;\r\n  uint poidActuel;\r\n string etat ;\r\n\r\n   }\r\n\r\nstruct Operation{\r\n    uint idOperation;\r\n  uint  poidsLait;\r\n  string  dateOperation ;\r\n   string typeOp ;\r\n  uint  code;\r\n   uint tank ;\r\n   }\r\n\r\n   constructor() {\r\n  }\r\n\r\nOperation[] public operations2;\r\nOperation[] public operations;\r\nuint256 public nextID = 1;\r\n\r\n\r\n//create 2\r\n  function addOperation2(Operation memory op)\r\n   public returns (Operation memory op0) {\r\n    operations2.push(op);\r\n    return (op);\r\n  }\r\n//create\r\n  function addOperation(uint poidsLait,string memory dateOperation, string memory typeOp,uint code,uint  tank)\r\n   public returns (uint idOperation0,uint poidsLait0, string memory dateOperation0, string memory typeOp0, uint code0, uint  tank0) {\r\n     nextID++;\r\n    Operation memory newOperation = Operation(nextID, poidsLait, dateOperation,typeOp,code,tank);\r\n    operations.push(newOperation);\r\n    return (newOperation.idOperation, newOperation.poidsLait, newOperation.dateOperation,newOperation.typeOp,newOperation.code,newOperation.tank);\r\n  }\r\n  //get all operations \r\n  \r\n  function getOperations() public view returns (Operation[] memory result ) {\r\n    return operations;\r\n  }\r\n\r\n//get one operation\r\n\r\n function getOperation(uint id) public view returns(Operation memory operation) {\r\n    for(uint i = 0; i<nextID;i++) {\r\n      if(operations[i].idOperation==id) {\r\n        return operations[i];\r\n      }\r\n    }\r\n  }\r\n\r\n}",
  "sourcePath": "C:\\Users\\ASUS\\Desktop\\testes\\pfetest2\\PFE_Project2022\\PFE-FrontEnd\\contracts\\Remplissage.sol",
  "compiler": {
    "name": "solc",
    "version": "0.8.11+commit.d7f03943.Emscripten.clang"
  },
  "schemaVersion": "3.4.5",
  "updatedAt": "2022-04-06T21:47:26.131Z",
  "networkType": "ethereum",
  "devdoc": {
    "kind": "dev",
    "methods": {},
    "version": 1
  },
  "userdoc": {
    "kind": "user",
    "methods": {},
    "version": 1
  }
}