{
  "contractName": "Remplissage",
  "abi": [
    {
      "inputs": [],
      "stateMutability": "nonpayable",
      "type": "constructor"
    },
    {
      "inputs": [
        {
          "internalType": "uint256",
          "name": "",
          "type": "uint256"
        }
      ],
      "name": "ALLS",
      "outputs": [
        {
          "internalType": "string",
          "name": "",
          "type": "string"
        }
      ],
      "stateMutability": "view",
      "type": "function",
      "constant": true
    },
    {
      "inputs": [],
      "name": "nextID",
      "outputs": [
        {
          "internalType": "uint256",
          "name": "",
          "type": "uint256"
        }
      ],
      "stateMutability": "view",
      "type": "function",
      "constant": true
    },
    {
      "inputs": [
        {
          "internalType": "uint256",
          "name": "",
          "type": "uint256"
        }
      ],
      "name": "operations2",
      "outputs": [
        {
          "internalType": "uint256",
          "name": "idOperation",
          "type": "uint256"
        },
        {
          "internalType": "uint256",
          "name": "poidsLait",
          "type": "uint256"
        },
        {
          "internalType": "string",
          "name": "dateOperation",
          "type": "string"
        },
        {
          "internalType": "string",
          "name": "typeOp",
          "type": "string"
        },
        {
          "internalType": "uint256",
          "name": "code",
          "type": "uint256"
        },
        {
          "components": [
            {
              "internalType": "uint256",
              "name": "idCollecteur",
              "type": "uint256"
            },
            {
              "internalType": "string",
              "name": "nomCollecteur",
              "type": "string"
            },
            {
              "internalType": "string",
              "name": "adresse",
              "type": "string"
            },
            {
              "internalType": "uint256",
              "name": "tel",
              "type": "uint256"
            }
          ],
          "internalType": "struct Remplissage.Collecteur",
          "name": "collecteur",
          "type": "tuple"
        }
      ],
      "stateMutability": "view",
      "type": "function",
      "constant": true
    },
    {
      "inputs": [
        {
          "components": [
            {
              "internalType": "uint256",
              "name": "idOperation",
              "type": "uint256"
            },
            {
              "internalType": "uint256",
              "name": "poidsLait",
              "type": "uint256"
            },
            {
              "internalType": "string",
              "name": "dateOperation",
              "type": "string"
            },
            {
              "internalType": "string",
              "name": "typeOp",
              "type": "string"
            },
            {
              "internalType": "uint256",
              "name": "code",
              "type": "uint256"
            },
            {
              "components": [
                {
                  "internalType": "uint256",
                  "name": "idCollecteur",
                  "type": "uint256"
                },
                {
                  "internalType": "string",
                  "name": "nomCollecteur",
                  "type": "string"
                },
                {
                  "internalType": "string",
                  "name": "adresse",
                  "type": "string"
                },
                {
                  "internalType": "uint256",
                  "name": "tel",
                  "type": "uint256"
                }
              ],
              "internalType": "struct Remplissage.Collecteur",
              "name": "collecteur",
              "type": "tuple"
            }
          ],
          "internalType": "struct Remplissage.Operation",
          "name": "op",
          "type": "tuple"
        }
      ],
      "name": "addOperation2",
      "outputs": [
        {
          "components": [
            {
              "internalType": "uint256",
              "name": "idOperation",
              "type": "uint256"
            },
            {
              "internalType": "uint256",
              "name": "poidsLait",
              "type": "uint256"
            },
            {
              "internalType": "string",
              "name": "dateOperation",
              "type": "string"
            },
            {
              "internalType": "string",
              "name": "typeOp",
              "type": "string"
            },
            {
              "internalType": "uint256",
              "name": "code",
              "type": "uint256"
            },
            {
              "components": [
                {
                  "internalType": "uint256",
                  "name": "idCollecteur",
                  "type": "uint256"
                },
                {
                  "internalType": "string",
                  "name": "nomCollecteur",
                  "type": "string"
                },
                {
                  "internalType": "string",
                  "name": "adresse",
                  "type": "string"
                },
                {
                  "internalType": "uint256",
                  "name": "tel",
                  "type": "uint256"
                }
              ],
              "internalType": "struct Remplissage.Collecteur",
              "name": "collecteur",
              "type": "tuple"
            }
          ],
          "internalType": "struct Remplissage.Operation",
          "name": "op0",
          "type": "tuple"
        }
      ],
      "stateMutability": "nonpayable",
      "type": "function"
    },
    {
      "inputs": [],
      "name": "getOperations",
      "outputs": [
        {
          "components": [
            {
              "internalType": "uint256",
              "name": "idOperation",
              "type": "uint256"
            },
            {
              "internalType": "uint256",
              "name": "poidsLait",
              "type": "uint256"
            },
            {
              "internalType": "string",
              "name": "dateOperation",
              "type": "string"
            },
            {
              "internalType": "string",
              "name": "typeOp",
              "type": "string"
            },
            {
              "internalType": "uint256",
              "name": "code",
              "type": "uint256"
            },
            {
              "components": [
                {
                  "internalType": "uint256",
                  "name": "idCollecteur",
                  "type": "uint256"
                },
                {
                  "internalType": "string",
                  "name": "nomCollecteur",
                  "type": "string"
                },
                {
                  "internalType": "string",
                  "name": "adresse",
                  "type": "string"
                },
                {
                  "internalType": "uint256",
                  "name": "tel",
                  "type": "uint256"
                }
              ],
              "internalType": "struct Remplissage.Collecteur",
              "name": "collecteur",
              "type": "tuple"
            }
          ],
          "internalType": "struct Remplissage.Operation[]",
          "name": "result",
          "type": "tuple[]"
        }
      ],
      "stateMutability": "view",
      "type": "function",
      "constant": true
    },
    {
      "inputs": [
        {
          "internalType": "uint256",
          "name": "id",
          "type": "uint256"
        }
      ],
      "name": "getOperation",
      "outputs": [
        {
          "components": [
            {
              "internalType": "uint256",
              "name": "idOperation",
              "type": "uint256"
            },
            {
              "internalType": "uint256",
              "name": "poidsLait",
              "type": "uint256"
            },
            {
              "internalType": "string",
              "name": "dateOperation",
              "type": "string"
            },
            {
              "internalType": "string",
              "name": "typeOp",
              "type": "string"
            },
            {
              "internalType": "uint256",
              "name": "code",
              "type": "uint256"
            },
            {
              "components": [
                {
                  "internalType": "uint256",
                  "name": "idCollecteur",
                  "type": "uint256"
                },
                {
                  "internalType": "string",
                  "name": "nomCollecteur",
                  "type": "string"
                },
                {
                  "internalType": "string",
                  "name": "adresse",
                  "type": "string"
                },
                {
                  "internalType": "uint256",
                  "name": "tel",
                  "type": "uint256"
                }
              ],
              "internalType": "struct Remplissage.Collecteur",
              "name": "collecteur",
              "type": "tuple"
            }
          ],
          "internalType": "struct Remplissage.Operation",
          "name": "operation",
          "type": "tuple"
        }
      ],
      "stateMutability": "view",
      "type": "function",
      "constant": true
    }
  ],
  "bytecode": "0x6080604052600160025534801561001557600080fd5b506116e3806100256000396000f3fe608060405234801561001057600080fd5b50600436106100625760003560e01c80631e96917d14610067578063202e3924146100855780635383bbfd146100b55780636739c3ae146100e5578063996ba7bb14610115578063f948e50a1461014a575b600080fd5b61006f610168565b60405161007c9190610d5f565b60405180910390f35b61009f600480360381019061009a9190610dba565b61016e565b6040516100ac9190610f90565b60405180910390f35b6100cf60048036038101906100ca9190610dba565b61048d565b6040516100dc9190610ffc565b60405180910390f35b6100ff60048036038101906100fa9190611301565b610539565b60405161010c9190610f90565b60405180910390f35b61012f600480360381019061012a9190610dba565b6106b4565b604051610141969594939291906113b4565b60405180910390f35b610152610952565b60405161015f9190611583565b60405180910390f35b60025481565b610176610c3f565b60005b600254811015610486578260008281548110610198576101976115a5565b5b906000526020600020906009020160000154141561047357600081815481106101c4576101c36115a5565b5b90600052602060002090600902016040518060c0016040529081600082015481526020016001820154815260200160028201805461020190611603565b80601f016020809104026020016040519081016040528092919081815260200182805461022d90611603565b801561027a5780601f1061024f5761010080835404028352916020019161027a565b820191906000526020600020905b81548152906001019060200180831161025d57829003601f168201915b5050505050815260200160038201805461029390611603565b80601f01602080910402602001604051908101604052809291908181526020018280546102bf90611603565b801561030c5780601f106102e15761010080835404028352916020019161030c565b820191906000526020600020905b8154815290600101906020018083116102ef57829003601f168201915b5050505050815260200160048201548152602001600582016040518060800160405290816000820154815260200160018201805461034990611603565b80601f016020809104026020016040519081016040528092919081815260200182805461037590611603565b80156103c25780601f10610397576101008083540402835291602001916103c2565b820191906000526020600020905b8154815290600101906020018083116103a557829003601f168201915b505050505081526020016002820180546103db90611603565b80601f016020809104026020016040519081016040528092919081815260200182805461040790611603565b80156104545780601f1061042957610100808354040283529160200191610454565b820191906000526020600020905b81548152906001019060200180831161043757829003601f168201915b5050505050815260200160038201548152505081525050915050610488565b808061047e90611664565b915050610179565b505b919050565b6001818154811061049d57600080fd5b9060005260206000200160009150905080546104b890611603565b80601f01602080910402602001604051908101604052809291908181526020018280546104e490611603565b80156105315780601f1061050657610100808354040283529160200191610531565b820191906000526020600020905b81548152906001019060200180831161051457829003601f168201915b505050505081565b610541610c3f565b600060405180608001604052808460a001516000015181526020018460a001516020015181526020018460a001516040015181526020018460a0015160600151815250905060006040518060c001604052808560000151815260200185602001518152602001856040015181526020018560600151815260200185608001518152602001838152509050600081908060018154018082558091505060019003906000526020600020906009020160009091909190915060008201518160000155602082015181600101556040820151816002019080519060200190610627929190610c7b565b506060820151816003019080519060200190610644929190610c7b565b506080820151816004015560a08201518160050160008201518160000155602082015181600101908051906020019061067e929190610c7b565b50604082015181600201908051906020019061069b929190610c7b565b5060608201518160030155505050508092505050919050565b600081815481106106c457600080fd5b90600052602060002090600902016000915090508060000154908060010154908060020180546106f390611603565b80601f016020809104026020016040519081016040528092919081815260200182805461071f90611603565b801561076c5780601f106107415761010080835404028352916020019161076c565b820191906000526020600020905b81548152906001019060200180831161074f57829003601f168201915b50505050509080600301805461078190611603565b80601f01602080910402602001604051908101604052809291908181526020018280546107ad90611603565b80156107fa5780601f106107cf576101008083540402835291602001916107fa565b820191906000526020600020905b8154815290600101906020018083116107dd57829003601f168201915b505050505090806004015490806005016040518060800160405290816000820154815260200160018201805461082f90611603565b80601f016020809104026020016040519081016040528092919081815260200182805461085b90611603565b80156108a85780601f1061087d576101008083540402835291602001916108a8565b820191906000526020600020905b81548152906001019060200180831161088b57829003601f168201915b505050505081526020016002820180546108c190611603565b80601f01602080910402602001604051908101604052809291908181526020018280546108ed90611603565b801561093a5780601f1061090f5761010080835404028352916020019161093a565b820191906000526020600020905b81548152906001019060200180831161091d57829003601f168201915b50505050508152602001600382015481525050905086565b60606000805480602002602001604051908101604052809291908181526020016000905b82821015610c3657838290600052602060002090600902016040518060c001604052908160008201548152602001600182015481526020016002820180546109bd90611603565b80601f01602080910402602001604051908101604052809291908181526020018280546109e990611603565b8015610a365780601f10610a0b57610100808354040283529160200191610a36565b820191906000526020600020905b815481529060010190602001808311610a1957829003601f168201915b50505050508152602001600382018054610a4f90611603565b80601f0160208091040260200160405190810160405280929190818152602001828054610a7b90611603565b8015610ac85780601f10610a9d57610100808354040283529160200191610ac8565b820191906000526020600020905b815481529060010190602001808311610aab57829003601f168201915b50505050508152602001600482015481526020016005820160405180608001604052908160008201548152602001600182018054610b0590611603565b80601f0160208091040260200160405190810160405280929190818152602001828054610b3190611603565b8015610b7e5780601f10610b5357610100808354040283529160200191610b7e565b820191906000526020600020905b815481529060010190602001808311610b6157829003601f168201915b50505050508152602001600282018054610b9790611603565b80601f0160208091040260200160405190810160405280929190818152602001828054610bc390611603565b8015610c105780601f10610be557610100808354040283529160200191610c10565b820191906000526020600020905b815481529060010190602001808311610bf357829003601f168201915b505050505081526020016003820154815250508152505081526020019060010190610976565b50505050905090565b6040518060c001604052806000815260200160008152602001606081526020016060815260200160008152602001610c75610d01565b81525090565b828054610c8790611603565b90600052602060002090601f016020900481019282610ca95760008555610cf0565b82601f10610cc257805160ff1916838001178555610cf0565b82800160010185558215610cf0579182015b82811115610cef578251825591602001919060010190610cd4565b5b509050610cfd9190610d29565b5090565b6040518060800160405280600081526020016060815260200160608152602001600081525090565b5b80821115610d42576000816000905550600101610d2a565b5090565b6000819050919050565b610d5981610d46565b82525050565b6000602082019050610d746000830184610d50565b92915050565b6000604051905090565b600080fd5b600080fd5b610d9781610d46565b8114610da257600080fd5b50565b600081359050610db481610d8e565b92915050565b600060208284031215610dd057610dcf610d84565b5b6000610dde84828501610da5565b91505092915050565b610df081610d46565b82525050565b600081519050919050565b600082825260208201905092915050565b60005b83811015610e30578082015181840152602081019050610e15565b83811115610e3f576000848401525b50505050565b6000601f19601f8301169050919050565b6000610e6182610df6565b610e6b8185610e01565b9350610e7b818560208601610e12565b610e8481610e45565b840191505092915050565b6000608083016000830151610ea76000860182610de7565b5060208301518482036020860152610ebf8282610e56565b91505060408301518482036040860152610ed98282610e56565b9150506060830151610eee6060860182610de7565b508091505092915050565b600060c083016000830151610f116000860182610de7565b506020830151610f246020860182610de7565b5060408301518482036040860152610f3c8282610e56565b91505060608301518482036060860152610f568282610e56565b9150506080830151610f6b6080860182610de7565b5060a083015184820360a0860152610f838282610e8f565b9150508091505092915050565b60006020820190508181036000830152610faa8184610ef9565b905092915050565b600082825260208201905092915050565b6000610fce82610df6565b610fd88185610fb2565b9350610fe8818560208601610e12565b610ff181610e45565b840191505092915050565b600060208201905081810360008301526110168184610fc3565b905092915050565b600080fd5b7f4e487b7100000000000000000000000000000000000000000000000000000000600052604160045260246000fd5b61105b82610e45565b810181811067ffffffffffffffff8211171561107a57611079611023565b5b80604052505050565b600061108d610d7a565b90506110998282611052565b919050565b600080fd5b600080fd5b600080fd5b600067ffffffffffffffff8211156110c8576110c7611023565b5b6110d182610e45565b9050602081019050919050565b82818337600083830152505050565b60006111006110fb846110ad565b611083565b90508281526020810184848401111561111c5761111b6110a8565b5b6111278482856110de565b509392505050565b600082601f830112611144576111436110a3565b5b81356111548482602086016110ed565b91505092915050565b6000608082840312156111735761117261101e565b5b61117d6080611083565b9050600061118d84828501610da5565b600083015250602082013567ffffffffffffffff8111156111b1576111b061109e565b5b6111bd8482850161112f565b602083015250604082013567ffffffffffffffff8111156111e1576111e061109e565b5b6111ed8482850161112f565b604083015250606061120184828501610da5565b60608301525092915050565b600060c082840312156112235761122261101e565b5b61122d60c0611083565b9050600061123d84828501610da5565b600083015250602061125184828501610da5565b602083015250604082013567ffffffffffffffff8111156112755761127461109e565b5b6112818482850161112f565b604083015250606082013567ffffffffffffffff8111156112a5576112a461109e565b5b6112b18482850161112f565b60608301525060806112c584828501610da5565b60808301525060a082013567ffffffffffffffff8111156112e9576112e861109e565b5b6112f58482850161115d565b60a08301525092915050565b60006020828403121561131757611316610d84565b5b600082013567ffffffffffffffff81111561133557611334610d89565b5b6113418482850161120d565b91505092915050565b60006080830160008301516113626000860182610de7565b506020830151848203602086015261137a8282610e56565b915050604083015184820360408601526113948282610e56565b91505060608301516113a96060860182610de7565b508091505092915050565b600060c0820190506113c96000830189610d50565b6113d66020830188610d50565b81810360408301526113e88187610fc3565b905081810360608301526113fc8186610fc3565b905061140b6080830185610d50565b81810360a083015261141d818461134a565b9050979650505050505050565b600081519050919050565b600082825260208201905092915050565b6000819050602082019050919050565b600060c08301600083015161146e6000860182610de7565b5060208301516114816020860182610de7565b50604083015184820360408601526114998282610e56565b915050606083015184820360608601526114b38282610e56565b91505060808301516114c86080860182610de7565b5060a083015184820360a08601526114e08282610e8f565b9150508091505092915050565b60006114f98383611456565b905092915050565b6000602082019050919050565b60006115198261142a565b6115238185611435565b93508360208202850161153585611446565b8060005b85811015611571578484038952815161155285826114ed565b945061155d83611501565b925060208a01995050600181019050611539565b50829750879550505050505092915050565b6000602082019050818103600083015261159d818461150e565b905092915050565b7f4e487b7100000000000000000000000000000000000000000000000000000000600052603260045260246000fd5b7f4e487b7100000000000000000000000000000000000000000000000000000000600052602260045260246000fd5b6000600282049050600182168061161b57607f821691505b6020821081141561162f5761162e6115d4565b5b50919050565b7f4e487b7100000000000000000000000000000000000000000000000000000000600052601160045260246000fd5b600061166f82610d46565b91507fffffffffffffffffffffffffffffffffffffffffffffffffffffffffffffffff8214156116a2576116a1611635565b5b60018201905091905056fea26469706673582212202a575a860b564e7fa56f8be8c7281d0c0aa4fed7f646fcacc7a8a4fecd9bf76464736f6c634300080b0033",
  "immutableReferences": {},
  "source": "// SPDX-License-Identifier: MIT\r\npragma solidity >=0.4.22 <0.9.0;\r\ncontract Remplissage{\r\n\r\n    struct Tank{\r\n      uint idTank;\r\n string matricule;\r\n uint poidVide;\r\n  uint poidActuel;\r\n string etat ;\r\n\r\n   }\r\n\r\nstruct Operation{\r\n  uint idOperation;\r\n  uint  poidsLait;\r\n  string  dateOperation ;\r\n  string typeOp ;\r\n  uint  code;\r\n // uint tank ;\r\n  Collecteur collecteur;\r\n//  Agriculteur agriculteur;\r\n   }\r\n\r\nstruct Agriculteur{\r\n  string  prenomAgriculteur ;\r\n   string nomAgriculteur ;\r\n   }\r\n\r\nstruct Collecteur{\r\n  uint idCollecteur;\r\n  string  nomCollecteur ;\r\n  string adresse ;\r\n  uint  tel;\r\n   }\r\n\r\n\r\n   constructor() {\r\n  }\r\nOperation[] public operations2;\r\n\r\nstring[] public ALLS;\r\nuint256 public nextID = 1;\r\n//create 2\r\n  function addOperation2(Operation memory op)\r\n   public returns (Operation memory op0) {\r\n   //  Agriculteur memory newAgriculteur = Agriculteur(nomAgriculteur,prenomAgriculteur);\r\n\r\n     Collecteur memory newCollecteur = Collecteur(op.collecteur.idCollecteur, \r\n     op.collecteur.nomCollecteur\r\n     ,op.collecteur.adresse,op.collecteur.tel);\r\n\r\n    Operation memory newOperation = Operation(op.idOperation,op.poidsLait, \r\n    op.dateOperation,op.typeOp,op.code,newCollecteur);\r\n    operations2.push(newOperation);\r\n    return (newOperation);\r\n  }\r\n  //get all operations \r\n  \r\n  function getOperations() public view returns (Operation[] memory result ) {\r\n    return operations2;\r\n  }\r\n\r\n//get one operation\r\n\r\n function getOperation(uint id) public view returns(Operation memory operation) {\r\n    for(uint i = 0; i<nextID;i++) {\r\n      if(operations2[i].idOperation==id) {\r\n        return operations2[i];\r\n      }\r\n    }\r\n  }\r\n\r\n}",
  "sourcePath": "C:\\Users\\ASUS\\Desktop\\pfe\\PFE_Project2022\\PFE-FrontEnd\\contracts\\Remplissage.sol",
  "compiler": {
    "name": "solc",
    "version": "0.8.11+commit.d7f03943.Emscripten.clang"
  },
  "schemaVersion": "3.4.5",
  "updatedAt": "2022-04-15T03:13:49.614Z",
  "networkType": "ethereum",
  "devdoc": {
    "kind": "dev",
    "methods": {},
    "version": 1
  },
  "userdoc": {
    "kind": "user",
    "methods": {},
    "version": 1
  }
}