{
  "contractName": "RetraitCol",
  "abi": [
    {
      "inputs": [
        {
          "internalType": "uint256",
          "name": "",
          "type": "uint256"
        }
      ],
      "name": "operationTankR",
      "outputs": [
        {
          "internalType": "uint256",
          "name": "idOpTank",
          "type": "uint256"
        },
        {
          "internalType": "int256",
          "name": "qteInsereTank",
          "type": "int256"
        },
        {
          "internalType": "string",
          "name": "date",
          "type": "string"
        },
        {
          "components": [
            {
              "internalType": "uint256",
              "name": "idOperation",
              "type": "uint256"
            },
            {
              "internalType": "uint256",
              "name": "poidsLait",
              "type": "uint256"
            },
            {
              "internalType": "string",
              "name": "dateOperation",
              "type": "string"
            },
            {
              "internalType": "string",
              "name": "typeOp",
              "type": "string"
            },
            {
              "internalType": "uint256",
              "name": "code",
              "type": "uint256"
            },
            {
              "internalType": "uint256[]",
              "name": "codeRemplissage",
              "type": "uint256[]"
            },
            {
              "components": [
                {
                  "internalType": "uint256",
                  "name": "idChef",
                  "type": "uint256"
                },
                {
                  "internalType": "string",
                  "name": "nom",
                  "type": "string"
                },
                {
                  "internalType": "string",
                  "name": "prenom",
                  "type": "string"
                },
                {
                  "internalType": "string",
                  "name": "email",
                  "type": "string"
                },
                {
                  "internalType": "string",
                  "name": "adress",
                  "type": "string"
                },
                {
                  "internalType": "uint256",
                  "name": "tel",
                  "type": "uint256"
                },
                {
                  "internalType": "uint256",
                  "name": "cin",
                  "type": "uint256"
                },
                {
                  "internalType": "string",
                  "name": "username",
                  "type": "string"
                },
                {
                  "internalType": "string",
                  "name": "password",
                  "type": "string"
                }
              ],
              "internalType": "struct Remplissage.Chef",
              "name": "chef",
              "type": "tuple"
            },
            {
              "components": [
                {
                  "internalType": "uint256",
                  "name": "idUsine",
                  "type": "uint256"
                },
                {
                  "internalType": "string",
                  "name": "nomUsine",
                  "type": "string"
                },
                {
                  "internalType": "string",
                  "name": "adresse",
                  "type": "string"
                }
              ],
              "internalType": "struct Remplissage.Usine",
              "name": "usine",
              "type": "tuple"
            }
          ],
          "internalType": "struct Remplissage.Operation01",
          "name": "operation",
          "type": "tuple"
        },
        {
          "components": [
            {
              "internalType": "uint256",
              "name": "idTank",
              "type": "uint256"
            },
            {
              "internalType": "string",
              "name": "matricule",
              "type": "string"
            },
            {
              "internalType": "uint256",
              "name": "poidVide",
              "type": "uint256"
            },
            {
              "internalType": "uint256",
              "name": "poidActuel",
              "type": "uint256"
            },
            {
              "internalType": "string",
              "name": "etat",
              "type": "string"
            },
            {
              "internalType": "uint256[]",
              "name": "codeTank",
              "type": "uint256[]"
            }
          ],
          "internalType": "struct Remplissage.Tank",
          "name": "tank",
          "type": "tuple"
        }
      ],
      "stateMutability": "view",
      "type": "function",
      "constant": true
    },
    {
      "inputs": [
        {
          "internalType": "uint256",
          "name": "",
          "type": "uint256"
        }
      ],
      "name": "operationagrs",
      "outputs": [
        {
          "internalType": "uint256",
          "name": "idOperation",
          "type": "uint256"
        },
        {
          "internalType": "uint256",
          "name": "code",
          "type": "uint256"
        },
        {
          "internalType": "string",
          "name": "dateOperation",
          "type": "string"
        },
        {
          "internalType": "string",
          "name": "typeOp",
          "type": "string"
        },
        {
          "internalType": "uint256",
          "name": "poidsLait",
          "type": "uint256"
        },
        {
          "components": [
            {
              "internalType": "uint256",
              "name": "idAgriculteur",
              "type": "uint256"
            },
            {
              "internalType": "string",
              "name": "nom",
              "type": "string"
            },
            {
              "internalType": "string",
              "name": "prenom",
              "type": "string"
            },
            {
              "internalType": "string",
              "name": "username",
              "type": "string"
            },
            {
              "internalType": "string",
              "name": "password",
              "type": "string"
            },
            {
              "internalType": "string",
              "name": "adress",
              "type": "string"
            }
          ],
          "internalType": "struct Remplissage.Agriculteur",
          "name": "agriculteur",
          "type": "tuple"
        },
        {
          "components": [
            {
              "internalType": "uint256",
              "name": "idCollecteur",
              "type": "uint256"
            },
            {
              "internalType": "string",
              "name": "nomCollecteur",
              "type": "string"
            },
            {
              "internalType": "string",
              "name": "prenomCollecteur",
              "type": "string"
            },
            {
              "internalType": "string",
              "name": "matricule",
              "type": "string"
            },
            {
              "internalType": "string",
              "name": "adresse",
              "type": "string"
            },
            {
              "internalType": "uint256",
              "name": "tel",
              "type": "uint256"
            }
          ],
          "internalType": "struct Remplissage.Collecteur",
          "name": "collecteur",
          "type": "tuple"
        }
      ],
      "stateMutability": "view",
      "type": "function",
      "constant": true
    },
    {
      "inputs": [
        {
          "components": [
            {
              "internalType": "uint256",
              "name": "idOpTank",
              "type": "uint256"
            },
            {
              "internalType": "int256",
              "name": "qteInsereTank",
              "type": "int256"
            },
            {
              "internalType": "string",
              "name": "date",
              "type": "string"
            },
            {
              "components": [
                {
                  "internalType": "uint256",
                  "name": "idOperation",
                  "type": "uint256"
                },
                {
                  "internalType": "uint256",
                  "name": "poidsLait",
                  "type": "uint256"
                },
                {
                  "internalType": "string",
                  "name": "dateOperation",
                  "type": "string"
                },
                {
                  "internalType": "string",
                  "name": "typeOp",
                  "type": "string"
                },
                {
                  "internalType": "uint256",
                  "name": "code",
                  "type": "uint256"
                },
                {
                  "internalType": "uint256[]",
                  "name": "codeRemplissage",
                  "type": "uint256[]"
                },
                {
                  "components": [
                    {
                      "internalType": "uint256",
                      "name": "idChef",
                      "type": "uint256"
                    },
                    {
                      "internalType": "string",
                      "name": "nom",
                      "type": "string"
                    },
                    {
                      "internalType": "string",
                      "name": "prenom",
                      "type": "string"
                    },
                    {
                      "internalType": "string",
                      "name": "email",
                      "type": "string"
                    },
                    {
                      "internalType": "string",
                      "name": "adress",
                      "type": "string"
                    },
                    {
                      "internalType": "uint256",
                      "name": "tel",
                      "type": "uint256"
                    },
                    {
                      "internalType": "uint256",
                      "name": "cin",
                      "type": "uint256"
                    },
                    {
                      "internalType": "string",
                      "name": "username",
                      "type": "string"
                    },
                    {
                      "internalType": "string",
                      "name": "password",
                      "type": "string"
                    }
                  ],
                  "internalType": "struct Remplissage.Chef",
                  "name": "chef",
                  "type": "tuple"
                },
                {
                  "components": [
                    {
                      "internalType": "uint256",
                      "name": "idUsine",
                      "type": "uint256"
                    },
                    {
                      "internalType": "string",
                      "name": "nomUsine",
                      "type": "string"
                    },
                    {
                      "internalType": "string",
                      "name": "adresse",
                      "type": "string"
                    }
                  ],
                  "internalType": "struct Remplissage.Usine",
                  "name": "usine",
                  "type": "tuple"
                }
              ],
              "internalType": "struct Remplissage.Operation01",
              "name": "operation",
              "type": "tuple"
            },
            {
              "components": [
                {
                  "internalType": "uint256",
                  "name": "idTank",
                  "type": "uint256"
                },
                {
                  "internalType": "string",
                  "name": "matricule",
                  "type": "string"
                },
                {
                  "internalType": "uint256",
                  "name": "poidVide",
                  "type": "uint256"
                },
                {
                  "internalType": "uint256",
                  "name": "poidActuel",
                  "type": "uint256"
                },
                {
                  "internalType": "string",
                  "name": "etat",
                  "type": "string"
                },
                {
                  "internalType": "uint256[]",
                  "name": "codeTank",
                  "type": "uint256[]"
                }
              ],
              "internalType": "struct Remplissage.Tank",
              "name": "tank",
              "type": "tuple"
            }
          ],
          "internalType": "struct Remplissage.OperationTank0[]",
          "name": "operationTank",
          "type": "tuple[]"
        },
        {
          "internalType": "uint256",
          "name": "count",
          "type": "uint256"
        }
      ],
      "name": "RetraitOperationTank",
      "outputs": [
        {
          "components": [
            {
              "internalType": "uint256",
              "name": "idOpTank",
              "type": "uint256"
            },
            {
              "internalType": "int256",
              "name": "qteInsereTank",
              "type": "int256"
            },
            {
              "internalType": "string",
              "name": "date",
              "type": "string"
            },
            {
              "components": [
                {
                  "internalType": "uint256",
                  "name": "idOperation",
                  "type": "uint256"
                },
                {
                  "internalType": "uint256",
                  "name": "poidsLait",
                  "type": "uint256"
                },
                {
                  "internalType": "string",
                  "name": "dateOperation",
                  "type": "string"
                },
                {
                  "internalType": "string",
                  "name": "typeOp",
                  "type": "string"
                },
                {
                  "internalType": "uint256",
                  "name": "code",
                  "type": "uint256"
                },
                {
                  "internalType": "uint256[]",
                  "name": "codeRemplissage",
                  "type": "uint256[]"
                },
                {
                  "components": [
                    {
                      "internalType": "uint256",
                      "name": "idChef",
                      "type": "uint256"
                    },
                    {
                      "internalType": "string",
                      "name": "nom",
                      "type": "string"
                    },
                    {
                      "internalType": "string",
                      "name": "prenom",
                      "type": "string"
                    },
                    {
                      "internalType": "string",
                      "name": "email",
                      "type": "string"
                    },
                    {
                      "internalType": "string",
                      "name": "adress",
                      "type": "string"
                    },
                    {
                      "internalType": "uint256",
                      "name": "tel",
                      "type": "uint256"
                    },
                    {
                      "internalType": "uint256",
                      "name": "cin",
                      "type": "uint256"
                    },
                    {
                      "internalType": "string",
                      "name": "username",
                      "type": "string"
                    },
                    {
                      "internalType": "string",
                      "name": "password",
                      "type": "string"
                    }
                  ],
                  "internalType": "struct Remplissage.Chef",
                  "name": "chef",
                  "type": "tuple"
                },
                {
                  "components": [
                    {
                      "internalType": "uint256",
                      "name": "idUsine",
                      "type": "uint256"
                    },
                    {
                      "internalType": "string",
                      "name": "nomUsine",
                      "type": "string"
                    },
                    {
                      "internalType": "string",
                      "name": "adresse",
                      "type": "string"
                    }
                  ],
                  "internalType": "struct Remplissage.Usine",
                  "name": "usine",
                  "type": "tuple"
                }
              ],
              "internalType": "struct Remplissage.Operation01",
              "name": "operation",
              "type": "tuple"
            },
            {
              "components": [
                {
                  "internalType": "uint256",
                  "name": "idTank",
                  "type": "uint256"
                },
                {
                  "internalType": "string",
                  "name": "matricule",
                  "type": "string"
                },
                {
                  "internalType": "uint256",
                  "name": "poidVide",
                  "type": "uint256"
                },
                {
                  "internalType": "uint256",
                  "name": "poidActuel",
                  "type": "uint256"
                },
                {
                  "internalType": "string",
                  "name": "etat",
                  "type": "string"
                },
                {
                  "internalType": "uint256[]",
                  "name": "codeTank",
                  "type": "uint256[]"
                }
              ],
              "internalType": "struct Remplissage.Tank",
              "name": "tank",
              "type": "tuple"
            }
          ],
          "internalType": "struct Remplissage.OperationTank0[]",
          "name": "tt0",
          "type": "tuple[]"
        }
      ],
      "stateMutability": "nonpayable",
      "type": "function"
    },
    {
      "inputs": [],
      "name": "getOperationTanks",
      "outputs": [
        {
          "components": [
            {
              "internalType": "uint256",
              "name": "idOpTank",
              "type": "uint256"
            },
            {
              "internalType": "int256",
              "name": "qteInsereTank",
              "type": "int256"
            },
            {
              "internalType": "string",
              "name": "date",
              "type": "string"
            },
            {
              "components": [
                {
                  "internalType": "uint256",
                  "name": "idOperation",
                  "type": "uint256"
                },
                {
                  "internalType": "uint256",
                  "name": "poidsLait",
                  "type": "uint256"
                },
                {
                  "internalType": "string",
                  "name": "dateOperation",
                  "type": "string"
                },
                {
                  "internalType": "string",
                  "name": "typeOp",
                  "type": "string"
                },
                {
                  "internalType": "uint256",
                  "name": "code",
                  "type": "uint256"
                },
                {
                  "internalType": "uint256[]",
                  "name": "codeRemplissage",
                  "type": "uint256[]"
                },
                {
                  "components": [
                    {
                      "internalType": "uint256",
                      "name": "idChef",
                      "type": "uint256"
                    },
                    {
                      "internalType": "string",
                      "name": "nom",
                      "type": "string"
                    },
                    {
                      "internalType": "string",
                      "name": "prenom",
                      "type": "string"
                    },
                    {
                      "internalType": "string",
                      "name": "email",
                      "type": "string"
                    },
                    {
                      "internalType": "string",
                      "name": "adress",
                      "type": "string"
                    },
                    {
                      "internalType": "uint256",
                      "name": "tel",
                      "type": "uint256"
                    },
                    {
                      "internalType": "uint256",
                      "name": "cin",
                      "type": "uint256"
                    },
                    {
                      "internalType": "string",
                      "name": "username",
                      "type": "string"
                    },
                    {
                      "internalType": "string",
                      "name": "password",
                      "type": "string"
                    }
                  ],
                  "internalType": "struct Remplissage.Chef",
                  "name": "chef",
                  "type": "tuple"
                },
                {
                  "components": [
                    {
                      "internalType": "uint256",
                      "name": "idUsine",
                      "type": "uint256"
                    },
                    {
                      "internalType": "string",
                      "name": "nomUsine",
                      "type": "string"
                    },
                    {
                      "internalType": "string",
                      "name": "adresse",
                      "type": "string"
                    }
                  ],
                  "internalType": "struct Remplissage.Usine",
                  "name": "usine",
                  "type": "tuple"
                }
              ],
              "internalType": "struct Remplissage.Operation01",
              "name": "operation",
              "type": "tuple"
            },
            {
              "components": [
                {
                  "internalType": "uint256",
                  "name": "idTank",
                  "type": "uint256"
                },
                {
                  "internalType": "string",
                  "name": "matricule",
                  "type": "string"
                },
                {
                  "internalType": "uint256",
                  "name": "poidVide",
                  "type": "uint256"
                },
                {
                  "internalType": "uint256",
                  "name": "poidActuel",
                  "type": "uint256"
                },
                {
                  "internalType": "string",
                  "name": "etat",
                  "type": "string"
                },
                {
                  "internalType": "uint256[]",
                  "name": "codeTank",
                  "type": "uint256[]"
                }
              ],
              "internalType": "struct Remplissage.Tank",
              "name": "tank",
              "type": "tuple"
            }
          ],
          "internalType": "struct Remplissage.OperationTank0[]",
          "name": "result",
          "type": "tuple[]"
        }
      ],
      "stateMutability": "view",
      "type": "function",
      "constant": true
    },
    {
      "inputs": [
        {
          "internalType": "uint256",
          "name": "code",
          "type": "uint256"
        },
        {
          "components": [
            {
              "internalType": "uint256",
              "name": "idOperation",
              "type": "uint256"
            },
            {
              "internalType": "uint256",
              "name": "code",
              "type": "uint256"
            },
            {
              "internalType": "string",
              "name": "dateOperation",
              "type": "string"
            },
            {
              "internalType": "string",
              "name": "typeOp",
              "type": "string"
            },
            {
              "internalType": "uint256",
              "name": "poidsLait",
              "type": "uint256"
            },
            {
              "components": [
                {
                  "internalType": "uint256",
                  "name": "idAgriculteur",
                  "type": "uint256"
                },
                {
                  "internalType": "string",
                  "name": "nom",
                  "type": "string"
                },
                {
                  "internalType": "string",
                  "name": "prenom",
                  "type": "string"
                },
                {
                  "internalType": "string",
                  "name": "username",
                  "type": "string"
                },
                {
                  "internalType": "string",
                  "name": "password",
                  "type": "string"
                },
                {
                  "internalType": "string",
                  "name": "adress",
                  "type": "string"
                }
              ],
              "internalType": "struct Remplissage.Agriculteur",
              "name": "agriculteur",
              "type": "tuple"
            },
            {
              "components": [
                {
                  "internalType": "uint256",
                  "name": "idCollecteur",
                  "type": "uint256"
                },
                {
                  "internalType": "string",
                  "name": "nomCollecteur",
                  "type": "string"
                },
                {
                  "internalType": "string",
                  "name": "prenomCollecteur",
                  "type": "string"
                },
                {
                  "internalType": "string",
                  "name": "matricule",
                  "type": "string"
                },
                {
                  "internalType": "string",
                  "name": "adresse",
                  "type": "string"
                },
                {
                  "internalType": "uint256",
                  "name": "tel",
                  "type": "uint256"
                }
              ],
              "internalType": "struct Remplissage.Collecteur",
              "name": "collecteur",
              "type": "tuple"
            }
          ],
          "internalType": "struct Remplissage.Operation[]",
          "name": "operation2",
          "type": "tuple[]"
        }
      ],
      "name": "getOperationbycode",
      "outputs": [
        {
          "components": [
            {
              "internalType": "uint256",
              "name": "idOperation",
              "type": "uint256"
            },
            {
              "internalType": "uint256",
              "name": "code",
              "type": "uint256"
            },
            {
              "internalType": "string",
              "name": "dateOperation",
              "type": "string"
            },
            {
              "internalType": "string",
              "name": "typeOp",
              "type": "string"
            },
            {
              "internalType": "uint256",
              "name": "poidsLait",
              "type": "uint256"
            },
            {
              "components": [
                {
                  "internalType": "uint256",
                  "name": "idAgriculteur",
                  "type": "uint256"
                },
                {
                  "internalType": "string",
                  "name": "nom",
                  "type": "string"
                },
                {
                  "internalType": "string",
                  "name": "prenom",
                  "type": "string"
                },
                {
                  "internalType": "string",
                  "name": "username",
                  "type": "string"
                },
                {
                  "internalType": "string",
                  "name": "password",
                  "type": "string"
                },
                {
                  "internalType": "string",
                  "name": "adress",
                  "type": "string"
                }
              ],
              "internalType": "struct Remplissage.Agriculteur",
              "name": "agriculteur",
              "type": "tuple"
            },
            {
              "components": [
                {
                  "internalType": "uint256",
                  "name": "idCollecteur",
                  "type": "uint256"
                },
                {
                  "internalType": "string",
                  "name": "nomCollecteur",
                  "type": "string"
                },
                {
                  "internalType": "string",
                  "name": "prenomCollecteur",
                  "type": "string"
                },
                {
                  "internalType": "string",
                  "name": "matricule",
                  "type": "string"
                },
                {
                  "internalType": "string",
                  "name": "adresse",
                  "type": "string"
                },
                {
                  "internalType": "uint256",
                  "name": "tel",
                  "type": "uint256"
                }
              ],
              "internalType": "struct Remplissage.Collecteur",
              "name": "collecteur",
              "type": "tuple"
            }
          ],
          "internalType": "struct Remplissage.Operation[]",
          "name": "operationtwo",
          "type": "tuple[]"
        }
      ],
      "stateMutability": "nonpayable",
      "type": "function"
    },
    {
      "inputs": [
        {
          "internalType": "uint256",
          "name": "code",
          "type": "uint256"
        }
      ],
      "name": "getOperationFromAgrsbycode",
      "outputs": [
        {
          "components": [
            {
              "internalType": "uint256",
              "name": "idOpTank",
              "type": "uint256"
            },
            {
              "internalType": "int256",
              "name": "qteInsereTank",
              "type": "int256"
            },
            {
              "internalType": "string",
              "name": "date",
              "type": "string"
            },
            {
              "components": [
                {
                  "internalType": "uint256",
                  "name": "idOperation",
                  "type": "uint256"
                },
                {
                  "internalType": "uint256",
                  "name": "poidsLait",
                  "type": "uint256"
                },
                {
                  "internalType": "string",
                  "name": "dateOperation",
                  "type": "string"
                },
                {
                  "internalType": "string",
                  "name": "typeOp",
                  "type": "string"
                },
                {
                  "internalType": "uint256",
                  "name": "code",
                  "type": "uint256"
                },
                {
                  "internalType": "uint256[]",
                  "name": "codeRemplissage",
                  "type": "uint256[]"
                },
                {
                  "components": [
                    {
                      "internalType": "uint256",
                      "name": "idChef",
                      "type": "uint256"
                    },
                    {
                      "internalType": "string",
                      "name": "nom",
                      "type": "string"
                    },
                    {
                      "internalType": "string",
                      "name": "prenom",
                      "type": "string"
                    },
                    {
                      "internalType": "string",
                      "name": "email",
                      "type": "string"
                    },
                    {
                      "internalType": "string",
                      "name": "adress",
                      "type": "string"
                    },
                    {
                      "internalType": "uint256",
                      "name": "tel",
                      "type": "uint256"
                    },
                    {
                      "internalType": "uint256",
                      "name": "cin",
                      "type": "uint256"
                    },
                    {
                      "internalType": "string",
                      "name": "username",
                      "type": "string"
                    },
                    {
                      "internalType": "string",
                      "name": "password",
                      "type": "string"
                    }
                  ],
                  "internalType": "struct Remplissage.Chef",
                  "name": "chef",
                  "type": "tuple"
                },
                {
                  "components": [
                    {
                      "internalType": "uint256",
                      "name": "idUsine",
                      "type": "uint256"
                    },
                    {
                      "internalType": "string",
                      "name": "nomUsine",
                      "type": "string"
                    },
                    {
                      "internalType": "string",
                      "name": "adresse",
                      "type": "string"
                    }
                  ],
                  "internalType": "struct Remplissage.Usine",
                  "name": "usine",
                  "type": "tuple"
                }
              ],
              "internalType": "struct Remplissage.Operation01",
              "name": "operation",
              "type": "tuple"
            },
            {
              "components": [
                {
                  "internalType": "uint256",
                  "name": "idTank",
                  "type": "uint256"
                },
                {
                  "internalType": "string",
                  "name": "matricule",
                  "type": "string"
                },
                {
                  "internalType": "uint256",
                  "name": "poidVide",
                  "type": "uint256"
                },
                {
                  "internalType": "uint256",
                  "name": "poidActuel",
                  "type": "uint256"
                },
                {
                  "internalType": "string",
                  "name": "etat",
                  "type": "string"
                },
                {
                  "internalType": "uint256[]",
                  "name": "codeTank",
                  "type": "uint256[]"
                }
              ],
              "internalType": "struct Remplissage.Tank",
              "name": "tank",
              "type": "tuple"
            }
          ],
          "internalType": "struct Remplissage.OperationTank0",
          "name": "operation",
          "type": "tuple"
        }
      ],
      "stateMutability": "view",
      "type": "function",
      "constant": true
    }
  ],
  "bytecode": "0x608060405234801561001057600080fd5b5061582780620000216000396000f3fe608060405234801561001057600080fd5b50600436106100625760003560e01c806316638829146100675780631c84d02d146100975780638724a430146100c7578063a96fe5f0146100fd578063c9c28e0f14610131578063e30443171461014f575b600080fd5b610081600480360381019061007c9190613c68565b61017f565b60405161008e919061412b565b60405180910390f35b6100b160048036038101906100ac91906146d2565b610afa565b6040516100be91906149e4565b60405180910390f35b6100e160048036038101906100dc9190613c68565b611509565b6040516100f49796959493929190614ba2565b60405180910390f35b61011760048036038101906101129190613c68565b611bbf565b604051610128959493929190614d9f565b60405180910390f35b6101396124b7565b6040516101469190614f4d565b60405180910390f35b6101696004803603810190610164919061568d565b612dfa565b6040516101769190614f4d565b60405180910390f35b6101876139ff565b60005b600180549050811015610af35782600182815481106101ac576101ab6156e9565b5b90600052602060002090601b0201600301600401541415610ae057600181815481106101db576101da6156e9565b5b90600052602060002090601b02016040518060a0016040529081600082015481526020016001820154815260200160028201805461021890615747565b80601f016020809104026020016040519081016040528092919081815260200182805461024490615747565b80156102915780601f1061026657610100808354040283529160200191610291565b820191906000526020600020905b81548152906001019060200180831161027457829003601f168201915b50505050508152602001600382016040518061010001604052908160008201548152602001600182015481526020016002820180546102cf90615747565b80601f01602080910402602001604051908101604052809291908181526020018280546102fb90615747565b80156103485780601f1061031d57610100808354040283529160200191610348565b820191906000526020600020905b81548152906001019060200180831161032b57829003601f168201915b5050505050815260200160038201805461036190615747565b80601f016020809104026020016040519081016040528092919081815260200182805461038d90615747565b80156103da5780601f106103af576101008083540402835291602001916103da565b820191906000526020600020905b8154815290600101906020018083116103bd57829003601f168201915b50505050508152602001600482015481526020016005820180548060200260200160405190810160405280929190818152602001828054801561043c57602002820191906000526020600020905b815481526020019060010190808311610428575b5050505050815260200160068201604051806101200160405290816000820154815260200160018201805461047090615747565b80601f016020809104026020016040519081016040528092919081815260200182805461049c90615747565b80156104e95780601f106104be576101008083540402835291602001916104e9565b820191906000526020600020905b8154815290600101906020018083116104cc57829003601f168201915b5050505050815260200160028201805461050290615747565b80601f016020809104026020016040519081016040528092919081815260200182805461052e90615747565b801561057b5780601f106105505761010080835404028352916020019161057b565b820191906000526020600020905b81548152906001019060200180831161055e57829003601f168201915b5050505050815260200160038201805461059490615747565b80601f01602080910402602001604051908101604052809291908181526020018280546105c090615747565b801561060d5780601f106105e25761010080835404028352916020019161060d565b820191906000526020600020905b8154815290600101906020018083116105f057829003601f168201915b5050505050815260200160048201805461062690615747565b80601f016020809104026020016040519081016040528092919081815260200182805461065290615747565b801561069f5780601f106106745761010080835404028352916020019161069f565b820191906000526020600020905b81548152906001019060200180831161068257829003601f168201915b5050505050815260200160058201548152602001600682015481526020016007820180546106cc90615747565b80601f01602080910402602001604051908101604052809291908181526020018280546106f890615747565b80156107455780601f1061071a57610100808354040283529160200191610745565b820191906000526020600020905b81548152906001019060200180831161072857829003601f168201915b5050505050815260200160088201805461075e90615747565b80601f016020809104026020016040519081016040528092919081815260200182805461078a90615747565b80156107d75780601f106107ac576101008083540402835291602001916107d7565b820191906000526020600020905b8154815290600101906020018083116107ba57829003601f168201915b5050505050815250508152602001600f82016040518060600160405290816000820154815260200160018201805461080e90615747565b80601f016020809104026020016040519081016040528092919081815260200182805461083a90615747565b80156108875780601f1061085c57610100808354040283529160200191610887565b820191906000526020600020905b81548152906001019060200180831161086a57829003601f168201915b505050505081526020016002820180546108a090615747565b80601f01602080910402602001604051908101604052809291908181526020018280546108cc90615747565b80156109195780601f106108ee57610100808354040283529160200191610919565b820191906000526020600020905b8154815290600101906020018083116108fc57829003601f168201915b505050505081525050815250508152602001601582016040518060c00160405290816000820154815260200160018201805461095490615747565b80601f016020809104026020016040519081016040528092919081815260200182805461098090615747565b80156109cd5780601f106109a2576101008083540402835291602001916109cd565b820191906000526020600020905b8154815290600101906020018083116109b057829003601f168201915b5050505050815260200160028201548152602001600382015481526020016004820180546109fa90615747565b80601f0160208091040260200160405190810160405280929190818152602001828054610a2690615747565b8015610a735780601f10610a4857610100808354040283529160200191610a73565b820191906000526020600020905b815481529060010190602001808311610a5657829003601f168201915b5050505050815260200160058201805480602002602001604051908101604052809291908181526020018280548015610acb57602002820191906000526020600020905b815481526020019060010190808311610ab7575b50505050508152505081525050915050610af5565b8080610aeb906157a8565b91505061018a565b505b919050565b606060005b600180549050811015610dfe578360018281548110610b2157610b206156e9565b5b90600052602060002090601b0201600301600401541415610deb5760005b60018281548110610b5357610b526156e9565b5b90600052602060002090601b020160150160050180549050811015610de95760005b8451811015610dd55760018381548110610b9257610b916156e9565b5b90600052602060002090601b02016015016005018281548110610bb857610bb76156e9565b5b9060005260206000200154858281518110610bd657610bd56156e9565b5b6020026020010151602001511415610dc2576000858281518110610bfd57610bfc6156e9565b5b6020026020010151908060018154018082558091505060019003906000526020600020906011020160009091909190915060008201518160000155602082015181600101556040820151816002019080519060200190610c5e929190613a3a565b506060820151816003019080519060200190610c7b929190613a3a565b506080820151816004015560a082015181600501600082015181600001556020820151816001019080519060200190610cb5929190613a3a565b506040820151816002019080519060200190610cd2929190613a3a565b506060820151816003019080519060200190610cef929190613a3a565b506080820151816004019080519060200190610d0c929190613a3a565b5060a0820151816005019080519060200190610d29929190613a3a565b50505060c082015181600b01600082015181600001556020820151816001019080519060200190610d5b929190613a3a565b506040820151816002019080519060200190610d78929190613a3a565b506060820151816003019080519060200190610d95929190613a3a565b506080820151816004019080519060200190610db2929190613a3a565b5060a08201518160050155505050505b8080610dcd906157a8565b915050610b75565b508080610de1906157a8565b915050610b3f565b505b8080610df6906157a8565b915050610aff565b506000805480602002602001604051908101604052809291908181526020016000905b828210156114fd57838290600052602060002090601102016040518060e00160405290816000820154815260200160018201548152602001600282018054610e6890615747565b80601f0160208091040260200160405190810160405280929190818152602001828054610e9490615747565b8015610ee15780601f10610eb657610100808354040283529160200191610ee1565b820191906000526020600020905b815481529060010190602001808311610ec457829003601f168201915b50505050508152602001600382018054610efa90615747565b80601f0160208091040260200160405190810160405280929190818152602001828054610f2690615747565b8015610f735780601f10610f4857610100808354040283529160200191610f73565b820191906000526020600020905b815481529060010190602001808311610f5657829003601f168201915b5050505050815260200160048201548152602001600582016040518060c001604052908160008201548152602001600182018054610fb090615747565b80601f0160208091040260200160405190810160405280929190818152602001828054610fdc90615747565b80156110295780601f10610ffe57610100808354040283529160200191611029565b820191906000526020600020905b81548152906001019060200180831161100c57829003601f168201915b5050505050815260200160028201805461104290615747565b80601f016020809104026020016040519081016040528092919081815260200182805461106e90615747565b80156110bb5780601f10611090576101008083540402835291602001916110bb565b820191906000526020600020905b81548152906001019060200180831161109e57829003601f168201915b505050505081526020016003820180546110d490615747565b80601f016020809104026020016040519081016040528092919081815260200182805461110090615747565b801561114d5780601f106111225761010080835404028352916020019161114d565b820191906000526020600020905b81548152906001019060200180831161113057829003601f168201915b5050505050815260200160048201805461116690615747565b80601f016020809104026020016040519081016040528092919081815260200182805461119290615747565b80156111df5780601f106111b4576101008083540402835291602001916111df565b820191906000526020600020905b8154815290600101906020018083116111c257829003601f168201915b505050505081526020016005820180546111f890615747565b80601f016020809104026020016040519081016040528092919081815260200182805461122490615747565b80156112715780601f1061124657610100808354040283529160200191611271565b820191906000526020600020905b81548152906001019060200180831161125457829003601f168201915b5050505050815250508152602001600b82016040518060c0016040529081600082015481526020016001820180546112a890615747565b80601f01602080910402602001604051908101604052809291908181526020018280546112d490615747565b80156113215780601f106112f657610100808354040283529160200191611321565b820191906000526020600020905b81548152906001019060200180831161130457829003601f168201915b5050505050815260200160028201805461133a90615747565b80601f016020809104026020016040519081016040528092919081815260200182805461136690615747565b80156113b35780601f10611388576101008083540402835291602001916113b3565b820191906000526020600020905b81548152906001019060200180831161139657829003601f168201915b505050505081526020016003820180546113cc90615747565b80601f01602080910402602001604051908101604052809291908181526020018280546113f890615747565b80156114455780601f1061141a57610100808354040283529160200191611445565b820191906000526020600020905b81548152906001019060200180831161142857829003601f168201915b5050505050815260200160048201805461145e90615747565b80601f016020809104026020016040519081016040528092919081815260200182805461148a90615747565b80156114d75780601f106114ac576101008083540402835291602001916114d7565b820191906000526020600020905b8154815290600101906020018083116114ba57829003601f168201915b505050505081526020016005820154815250508152505081526020019060010190610e21565b50505050905092915050565b6000818154811061151957600080fd5b906000526020600020906011020160009150905080600001549080600101549080600201805461154890615747565b80601f016020809104026020016040519081016040528092919081815260200182805461157490615747565b80156115c15780601f10611596576101008083540402835291602001916115c1565b820191906000526020600020905b8154815290600101906020018083116115a457829003601f168201915b5050505050908060030180546115d690615747565b80601f016020809104026020016040519081016040528092919081815260200182805461160290615747565b801561164f5780601f106116245761010080835404028352916020019161164f565b820191906000526020600020905b81548152906001019060200180831161163257829003601f168201915b505050505090806004015490806005016040518060c00160405290816000820154815260200160018201805461168490615747565b80601f01602080910402602001604051908101604052809291908181526020018280546116b090615747565b80156116fd5780601f106116d2576101008083540402835291602001916116fd565b820191906000526020600020905b8154815290600101906020018083116116e057829003601f168201915b5050505050815260200160028201805461171690615747565b80601f016020809104026020016040519081016040528092919081815260200182805461174290615747565b801561178f5780601f106117645761010080835404028352916020019161178f565b820191906000526020600020905b81548152906001019060200180831161177257829003601f168201915b505050505081526020016003820180546117a890615747565b80601f01602080910402602001604051908101604052809291908181526020018280546117d490615747565b80156118215780601f106117f657610100808354040283529160200191611821565b820191906000526020600020905b81548152906001019060200180831161180457829003601f168201915b5050505050815260200160048201805461183a90615747565b80601f016020809104026020016040519081016040528092919081815260200182805461186690615747565b80156118b35780601f10611888576101008083540402835291602001916118b3565b820191906000526020600020905b81548152906001019060200180831161189657829003601f168201915b505050505081526020016005820180546118cc90615747565b80601f01602080910402602001604051908101604052809291908181526020018280546118f890615747565b80156119455780601f1061191a57610100808354040283529160200191611945565b820191906000526020600020905b81548152906001019060200180831161192857829003601f168201915b5050505050815250509080600b016040518060c00160405290816000820154815260200160018201805461197890615747565b80601f01602080910402602001604051908101604052809291908181526020018280546119a490615747565b80156119f15780601f106119c6576101008083540402835291602001916119f1565b820191906000526020600020905b8154815290600101906020018083116119d457829003601f168201915b50505050508152602001600282018054611a0a90615747565b80601f0160208091040260200160405190810160405280929190818152602001828054611a3690615747565b8015611a835780601f10611a5857610100808354040283529160200191611a83565b820191906000526020600020905b815481529060010190602001808311611a6657829003601f168201915b50505050508152602001600382018054611a9c90615747565b80601f0160208091040260200160405190810160405280929190818152602001828054611ac890615747565b8015611b155780601f10611aea57610100808354040283529160200191611b15565b820191906000526020600020905b815481529060010190602001808311611af857829003601f168201915b50505050508152602001600482018054611b2e90615747565b80601f0160208091040260200160405190810160405280929190818152602001828054611b5a90615747565b8015611ba75780601f10611b7c57610100808354040283529160200191611ba7565b820191906000526020600020905b815481529060010190602001808311611b8a57829003601f168201915b50505050508152602001600582015481525050905087565b60018181548110611bcf57600080fd5b90600052602060002090601b0201600091509050806000015490806001015490806002018054611bfe90615747565b80601f0160208091040260200160405190810160405280929190818152602001828054611c2a90615747565b8015611c775780601f10611c4c57610100808354040283529160200191611c77565b820191906000526020600020905b815481529060010190602001808311611c5a57829003601f168201915b50505050509080600301604051806101000160405290816000820154815260200160018201548152602001600282018054611cb190615747565b80601f0160208091040260200160405190810160405280929190818152602001828054611cdd90615747565b8015611d2a5780601f10611cff57610100808354040283529160200191611d2a565b820191906000526020600020905b815481529060010190602001808311611d0d57829003601f168201915b50505050508152602001600382018054611d4390615747565b80601f0160208091040260200160405190810160405280929190818152602001828054611d6f90615747565b8015611dbc5780601f10611d9157610100808354040283529160200191611dbc565b820191906000526020600020905b815481529060010190602001808311611d9f57829003601f168201915b505050505081526020016004820154815260200160058201805480602002602001604051908101604052809291908181526020018280548015611e1e57602002820191906000526020600020905b815481526020019060010190808311611e0a575b50505050508152602001600682016040518061012001604052908160008201548152602001600182018054611e5290615747565b80601f0160208091040260200160405190810160405280929190818152602001828054611e7e90615747565b8015611ecb5780601f10611ea057610100808354040283529160200191611ecb565b820191906000526020600020905b815481529060010190602001808311611eae57829003601f168201915b50505050508152602001600282018054611ee490615747565b80601f0160208091040260200160405190810160405280929190818152602001828054611f1090615747565b8015611f5d5780601f10611f3257610100808354040283529160200191611f5d565b820191906000526020600020905b815481529060010190602001808311611f4057829003601f168201915b50505050508152602001600382018054611f7690615747565b80601f0160208091040260200160405190810160405280929190818152602001828054611fa290615747565b8015611fef5780601f10611fc457610100808354040283529160200191611fef565b820191906000526020600020905b815481529060010190602001808311611fd257829003601f168201915b5050505050815260200160048201805461200890615747565b80601f016020809104026020016040519081016040528092919081815260200182805461203490615747565b80156120815780601f1061205657610100808354040283529160200191612081565b820191906000526020600020905b81548152906001019060200180831161206457829003601f168201915b5050505050815260200160058201548152602001600682015481526020016007820180546120ae90615747565b80601f01602080910402602001604051908101604052809291908181526020018280546120da90615747565b80156121275780601f106120fc57610100808354040283529160200191612127565b820191906000526020600020905b81548152906001019060200180831161210a57829003601f168201915b5050505050815260200160088201805461214090615747565b80601f016020809104026020016040519081016040528092919081815260200182805461216c90615747565b80156121b95780601f1061218e576101008083540402835291602001916121b9565b820191906000526020600020905b81548152906001019060200180831161219c57829003601f168201915b5050505050815250508152602001600f8201604051806060016040529081600082015481526020016001820180546121f090615747565b80601f016020809104026020016040519081016040528092919081815260200182805461221c90615747565b80156122695780601f1061223e57610100808354040283529160200191612269565b820191906000526020600020905b81548152906001019060200180831161224c57829003601f168201915b5050505050815260200160028201805461228290615747565b80601f01602080910402602001604051908101604052809291908181526020018280546122ae90615747565b80156122fb5780601f106122d0576101008083540402835291602001916122fb565b820191906000526020600020905b8154815290600101906020018083116122de57829003601f168201915b5050505050815250508152505090806015016040518060c00160405290816000820154815260200160018201805461233290615747565b80601f016020809104026020016040519081016040528092919081815260200182805461235e90615747565b80156123ab5780601f10612380576101008083540402835291602001916123ab565b820191906000526020600020905b81548152906001019060200180831161238e57829003601f168201915b5050505050815260200160028201548152602001600382015481526020016004820180546123d890615747565b80601f016020809104026020016040519081016040528092919081815260200182805461240490615747565b80156124515780601f1061242657610100808354040283529160200191612451565b820191906000526020600020905b81548152906001019060200180831161243457829003601f168201915b50505050508152602001600582018054806020026020016040519081016040528092919081815260200182805480156124a957602002820191906000526020600020905b815481526020019060010190808311612495575b505050505081525050905085565b60606001805480602002602001604051908101604052809291908181526020016000905b82821015612df157838290600052602060002090601b02016040518060a0016040529081600082015481526020016001820154815260200160028201805461252290615747565b80601f016020809104026020016040519081016040528092919081815260200182805461254e90615747565b801561259b5780601f106125705761010080835404028352916020019161259b565b820191906000526020600020905b81548152906001019060200180831161257e57829003601f168201915b50505050508152602001600382016040518061010001604052908160008201548152602001600182015481526020016002820180546125d990615747565b80601f016020809104026020016040519081016040528092919081815260200182805461260590615747565b80156126525780601f1061262757610100808354040283529160200191612652565b820191906000526020600020905b81548152906001019060200180831161263557829003601f168201915b5050505050815260200160038201805461266b90615747565b80601f016020809104026020016040519081016040528092919081815260200182805461269790615747565b80156126e45780601f106126b9576101008083540402835291602001916126e4565b820191906000526020600020905b8154815290600101906020018083116126c757829003601f168201915b50505050508152602001600482015481526020016005820180548060200260200160405190810160405280929190818152602001828054801561274657602002820191906000526020600020905b815481526020019060010190808311612732575b5050505050815260200160068201604051806101200160405290816000820154815260200160018201805461277a90615747565b80601f01602080910402602001604051908101604052809291908181526020018280546127a690615747565b80156127f35780601f106127c8576101008083540402835291602001916127f3565b820191906000526020600020905b8154815290600101906020018083116127d657829003601f168201915b5050505050815260200160028201805461280c90615747565b80601f016020809104026020016040519081016040528092919081815260200182805461283890615747565b80156128855780601f1061285a57610100808354040283529160200191612885565b820191906000526020600020905b81548152906001019060200180831161286857829003601f168201915b5050505050815260200160038201805461289e90615747565b80601f01602080910402602001604051908101604052809291908181526020018280546128ca90615747565b80156129175780601f106128ec57610100808354040283529160200191612917565b820191906000526020600020905b8154815290600101906020018083116128fa57829003601f168201915b5050505050815260200160048201805461293090615747565b80601f016020809104026020016040519081016040528092919081815260200182805461295c90615747565b80156129a95780601f1061297e576101008083540402835291602001916129a9565b820191906000526020600020905b81548152906001019060200180831161298c57829003601f168201915b5050505050815260200160058201548152602001600682015481526020016007820180546129d690615747565b80601f0160208091040260200160405190810160405280929190818152602001828054612a0290615747565b8015612a4f5780601f10612a2457610100808354040283529160200191612a4f565b820191906000526020600020905b815481529060010190602001808311612a3257829003601f168201915b50505050508152602001600882018054612a6890615747565b80601f0160208091040260200160405190810160405280929190818152602001828054612a9490615747565b8015612ae15780601f10612ab657610100808354040283529160200191612ae1565b820191906000526020600020905b815481529060010190602001808311612ac457829003601f168201915b5050505050815250508152602001600f820160405180606001604052908160008201548152602001600182018054612b1890615747565b80601f0160208091040260200160405190810160405280929190818152602001828054612b4490615747565b8015612b915780601f10612b6657610100808354040283529160200191612b91565b820191906000526020600020905b815481529060010190602001808311612b7457829003601f168201915b50505050508152602001600282018054612baa90615747565b80601f0160208091040260200160405190810160405280929190818152602001828054612bd690615747565b8015612c235780601f10612bf857610100808354040283529160200191612c23565b820191906000526020600020905b815481529060010190602001808311612c0657829003601f168201915b505050505081525050815250508152602001601582016040518060c001604052908160008201548152602001600182018054612c5e90615747565b80601f0160208091040260200160405190810160405280929190818152602001828054612c8a90615747565b8015612cd75780601f10612cac57610100808354040283529160200191612cd7565b820191906000526020600020905b815481529060010190602001808311612cba57829003601f168201915b505050505081526020016002820154815260200160038201548152602001600482018054612d0490615747565b80601f0160208091040260200160405190810160405280929190818152602001828054612d3090615747565b8015612d7d5780601f10612d5257610100808354040283529160200191612d7d565b820191906000526020600020905b815481529060010190602001808311612d6057829003601f168201915b5050505050815260200160058201805480602002602001604051908101604052809291908181526020018280548015612dd557602002820191906000526020600020905b815481526020019060010190808311612dc1575b50505050508152505081525050815260200190600101906124db565b50505050905090565b606060005b828110156130ba576001848281518110612e1c57612e1b6156e9565b5b602002602001015190806001815401808255809150506001900390600052602060002090601b020160009091909190915060008201518160000155602082015181600101556040820151816002019080519060200190612e7d929190613a3a565b5060608201518160030160008201518160000155602082015181600101556040820151816002019080519060200190612eb7929190613a3a565b506060820151816003019080519060200190612ed4929190613a3a565b506080820151816004015560a0820151816005019080519060200190612efb929190613ac0565b5060c082015181600601600082015181600001556020820151816001019080519060200190612f2b929190613a3a565b506040820151816002019080519060200190612f48929190613a3a565b506060820151816003019080519060200190612f65929190613a3a565b506080820151816004019080519060200190612f82929190613a3a565b5060a0820151816005015560c0820151816006015560e0820151816007019080519060200190612fb3929190613a3a565b50610100820151816008019080519060200190612fd1929190613a3a565b50505060e082015181600f01600082015181600001556020820151816001019080519060200190613003929190613a3a565b506040820151816002019080519060200190613020929190613a3a565b5050505050608082015181601501600082015181600001556020820151816001019080519060200190613054929190613a3a565b5060408201518160020155606082015181600301556080820151816004019080519060200190613085929190613a3a565b5060a08201518160050190805190602001906130a2929190613ac0565b505050505080806130b2906157a8565b915050612dff565b506001805480602002602001604051908101604052809291908181526020016000905b828210156139f357838290600052602060002090601b02016040518060a0016040529081600082015481526020016001820154815260200160028201805461312490615747565b80601f016020809104026020016040519081016040528092919081815260200182805461315090615747565b801561319d5780601f106131725761010080835404028352916020019161319d565b820191906000526020600020905b81548152906001019060200180831161318057829003601f168201915b50505050508152602001600382016040518061010001604052908160008201548152602001600182015481526020016002820180546131db90615747565b80601f016020809104026020016040519081016040528092919081815260200182805461320790615747565b80156132545780601f1061322957610100808354040283529160200191613254565b820191906000526020600020905b81548152906001019060200180831161323757829003601f168201915b5050505050815260200160038201805461326d90615747565b80601f016020809104026020016040519081016040528092919081815260200182805461329990615747565b80156132e65780601f106132bb576101008083540402835291602001916132e6565b820191906000526020600020905b8154815290600101906020018083116132c957829003601f168201915b50505050508152602001600482015481526020016005820180548060200260200160405190810160405280929190818152602001828054801561334857602002820191906000526020600020905b815481526020019060010190808311613334575b5050505050815260200160068201604051806101200160405290816000820154815260200160018201805461337c90615747565b80601f01602080910402602001604051908101604052809291908181526020018280546133a890615747565b80156133f55780601f106133ca576101008083540402835291602001916133f5565b820191906000526020600020905b8154815290600101906020018083116133d857829003601f168201915b5050505050815260200160028201805461340e90615747565b80601f016020809104026020016040519081016040528092919081815260200182805461343a90615747565b80156134875780601f1061345c57610100808354040283529160200191613487565b820191906000526020600020905b81548152906001019060200180831161346a57829003601f168201915b505050505081526020016003820180546134a090615747565b80601f01602080910402602001604051908101604052809291908181526020018280546134cc90615747565b80156135195780601f106134ee57610100808354040283529160200191613519565b820191906000526020600020905b8154815290600101906020018083116134fc57829003601f168201915b5050505050815260200160048201805461353290615747565b80601f016020809104026020016040519081016040528092919081815260200182805461355e90615747565b80156135ab5780601f10613580576101008083540402835291602001916135ab565b820191906000526020600020905b81548152906001019060200180831161358e57829003601f168201915b5050505050815260200160058201548152602001600682015481526020016007820180546135d890615747565b80601f016020809104026020016040519081016040528092919081815260200182805461360490615747565b80156136515780601f1061362657610100808354040283529160200191613651565b820191906000526020600020905b81548152906001019060200180831161363457829003601f168201915b5050505050815260200160088201805461366a90615747565b80601f016020809104026020016040519081016040528092919081815260200182805461369690615747565b80156136e35780601f106136b8576101008083540402835291602001916136e3565b820191906000526020600020905b8154815290600101906020018083116136c657829003601f168201915b5050505050815250508152602001600f82016040518060600160405290816000820154815260200160018201805461371a90615747565b80601f016020809104026020016040519081016040528092919081815260200182805461374690615747565b80156137935780601f1061376857610100808354040283529160200191613793565b820191906000526020600020905b81548152906001019060200180831161377657829003601f168201915b505050505081526020016002820180546137ac90615747565b80601f01602080910402602001604051908101604052809291908181526020018280546137d890615747565b80156138255780601f106137fa57610100808354040283529160200191613825565b820191906000526020600020905b81548152906001019060200180831161380857829003601f168201915b505050505081525050815250508152602001601582016040518060c00160405290816000820154815260200160018201805461386090615747565b80601f016020809104026020016040519081016040528092919081815260200182805461388c90615747565b80156138d95780601f106138ae576101008083540402835291602001916138d9565b820191906000526020600020905b8154815290600101906020018083116138bc57829003601f168201915b50505050508152602001600282015481526020016003820154815260200160048201805461390690615747565b80601f016020809104026020016040519081016040528092919081815260200182805461393290615747565b801561397f5780601f106139545761010080835404028352916020019161397f565b820191906000526020600020905b81548152906001019060200180831161396257829003601f168201915b50505050508152602001600582018054806020026020016040519081016040528092919081815260200182805480156139d757602002820191906000526020600020905b8154815260200190600101908083116139c3575b50505050508152505081525050815260200190600101906130dd565b50505050905092915050565b6040518060a00160405280600081526020016000815260200160608152602001613a27613b0d565b8152602001613a34613b5e565b81525090565b828054613a4690615747565b90600052602060002090601f016020900481019282613a685760008555613aaf565b82601f10613a8157805160ff1916838001178555613aaf565b82800160010185558215613aaf579182015b82811115613aae578251825591602001919060010190613a93565b5b509050613abc9190613b94565b5090565b828054828255906000526020600020908101928215613afc579160200282015b82811115613afb578251825591602001919060010190613ae0565b5b509050613b099190613b94565b5090565b604051806101000160405280600081526020016000815260200160608152602001606081526020016000815260200160608152602001613b4b613bb1565b8152602001613b58613bfd565b81525090565b6040518060c001604052806000815260200160608152602001600081526020016000815260200160608152602001606081525090565b5b80821115613bad576000816000905550600101613b95565b5090565b6040518061012001604052806000815260200160608152602001606081526020016060815260200160608152602001600081526020016000815260200160608152602001606081525090565b60405180606001604052806000815260200160608152602001606081525090565b6000604051905090565b600080fd5b600080fd5b6000819050919050565b613c4581613c32565b8114613c5057600080fd5b50565b600081359050613c6281613c3c565b92915050565b600060208284031215613c7e57613c7d613c28565b5b6000613c8c84828501613c53565b91505092915050565b613c9e81613c32565b82525050565b6000819050919050565b613cb781613ca4565b82525050565b600081519050919050565b600082825260208201905092915050565b60005b83811015613cf7578082015181840152602081019050613cdc565b83811115613d06576000848401525b50505050565b6000601f19601f8301169050919050565b6000613d2882613cbd565b613d328185613cc8565b9350613d42818560208601613cd9565b613d4b81613d0c565b840191505092915050565b600081519050919050565b600082825260208201905092915050565b6000819050602082019050919050565b6000613d8e8383613c95565b60208301905092915050565b6000602082019050919050565b6000613db282613d56565b613dbc8185613d61565b9350613dc783613d72565b8060005b83811015613df8578151613ddf8882613d82565b9750613dea83613d9a565b925050600181019050613dcb565b5085935050505092915050565b600061012083016000830151613e1e6000860182613c95565b5060208301518482036020860152613e368282613d1d565b91505060408301518482036040860152613e508282613d1d565b91505060608301518482036060860152613e6a8282613d1d565b91505060808301518482036080860152613e848282613d1d565b91505060a0830151613e9960a0860182613c95565b5060c0830151613eac60c0860182613c95565b5060e083015184820360e0860152613ec48282613d1d565b915050610100830151848203610100860152613ee08282613d1d565b9150508091505092915050565b6000606083016000830151613f056000860182613c95565b5060208301518482036020860152613f1d8282613d1d565b91505060408301518482036040860152613f378282613d1d565b9150508091505092915050565b600061010083016000830151613f5d6000860182613c95565b506020830151613f706020860182613c95565b5060408301518482036040860152613f888282613d1d565b91505060608301518482036060860152613fa28282613d1d565b9150506080830151613fb76080860182613c95565b5060a083015184820360a0860152613fcf8282613da7565b91505060c083015184820360c0860152613fe98282613e05565b91505060e083015184820360e08601526140038282613eed565b9150508091505092915050565b600060c0830160008301516140286000860182613c95565b50602083015184820360208601526140408282613d1d565b91505060408301516140556040860182613c95565b5060608301516140686060860182613c95565b50608083015184820360808601526140808282613d1d565b91505060a083015184820360a086015261409a8282613da7565b9150508091505092915050565b600060a0830160008301516140bf6000860182613c95565b5060208301516140d26020860182613cae565b50604083015184820360408601526140ea8282613d1d565b915050606083015184820360608601526141048282613f44565b9150506080830151848203608086015261411e8282614010565b9150508091505092915050565b6000602082019050818103600083015261414581846140a7565b905092915050565b600080fd5b7f4e487b7100000000000000000000000000000000000000000000000000000000600052604160045260246000fd5b61418a82613d0c565b810181811067ffffffffffffffff821117156141a9576141a8614152565b5b80604052505050565b60006141bc613c1e565b90506141c88282614181565b919050565b600067ffffffffffffffff8211156141e8576141e7614152565b5b602082029050602081019050919050565b600080fd5b600080fd5b600080fd5b600080fd5b600067ffffffffffffffff82111561422857614227614152565b5b61423182613d0c565b9050602081019050919050565b82818337600083830152505050565b600061426061425b8461420d565b6141b2565b90508281526020810184848401111561427c5761427b614208565b5b61428784828561423e565b509392505050565b600082601f8301126142a4576142a361414d565b5b81356142b484826020860161424d565b91505092915050565b600060c082840312156142d3576142d26141fe565b5b6142dd60c06141b2565b905060006142ed84828501613c53565b600083015250602082013567ffffffffffffffff81111561431157614310614203565b5b61431d8482850161428f565b602083015250604082013567ffffffffffffffff81111561434157614340614203565b5b61434d8482850161428f565b604083015250606082013567ffffffffffffffff81111561437157614370614203565b5b61437d8482850161428f565b606083015250608082013567ffffffffffffffff8111156143a1576143a0614203565b5b6143ad8482850161428f565b60808301525060a082013567ffffffffffffffff8111156143d1576143d0614203565b5b6143dd8482850161428f565b60a08301525092915050565b600060c082840312156143ff576143fe6141fe565b5b61440960c06141b2565b9050600061441984828501613c53565b600083015250602082013567ffffffffffffffff81111561443d5761443c614203565b5b6144498482850161428f565b602083015250604082013567ffffffffffffffff81111561446d5761446c614203565b5b6144798482850161428f565b604083015250606082013567ffffffffffffffff81111561449d5761449c614203565b5b6144a98482850161428f565b606083015250608082013567ffffffffffffffff8111156144cd576144cc614203565b5b6144d98482850161428f565b60808301525060a06144ed84828501613c53565b60a08301525092915050565b600060e0828403121561450f5761450e6141fe565b5b61451960e06141b2565b9050600061452984828501613c53565b600083015250602061453d84828501613c53565b602083015250604082013567ffffffffffffffff81111561456157614560614203565b5b61456d8482850161428f565b604083015250606082013567ffffffffffffffff81111561459157614590614203565b5b61459d8482850161428f565b60608301525060806145b184828501613c53565b60808301525060a082013567ffffffffffffffff8111156145d5576145d4614203565b5b6145e1848285016142bd565b60a08301525060c082013567ffffffffffffffff81111561460557614604614203565b5b614611848285016143e9565b60c08301525092915050565b600061463061462b846141cd565b6141b2565b90508083825260208201905060208402830185811115614653576146526141f9565b5b835b8181101561469a57803567ffffffffffffffff8111156146785761467761414d565b5b80860161468589826144f9565b85526020850194505050602081019050614655565b5050509392505050565b600082601f8301126146b9576146b861414d565b5b81356146c984826020860161461d565b91505092915050565b600080604083850312156146e9576146e8613c28565b5b60006146f785828601613c53565b925050602083013567ffffffffffffffff81111561471857614717613c2d565b5b614724858286016146a4565b9150509250929050565b600081519050919050565b600082825260208201905092915050565b6000819050602082019050919050565b600060c0830160008301516147726000860182613c95565b506020830151848203602086015261478a8282613d1d565b915050604083015184820360408601526147a48282613d1d565b915050606083015184820360608601526147be8282613d1d565b915050608083015184820360808601526147d88282613d1d565b91505060a083015184820360a08601526147f28282613d1d565b9150508091505092915050565b600060c0830160008301516148176000860182613c95565b506020830151848203602086015261482f8282613d1d565b915050604083015184820360408601526148498282613d1d565b915050606083015184820360608601526148638282613d1d565b9150506080830151848203608086015261487d8282613d1d565b91505060a083015161489260a0860182613c95565b508091505092915050565b600060e0830160008301516148b56000860182613c95565b5060208301516148c86020860182613c95565b50604083015184820360408601526148e08282613d1d565b915050606083015184820360608601526148fa8282613d1d565b915050608083015161490f6080860182613c95565b5060a083015184820360a0860152614927828261475a565b91505060c083015184820360c086015261494182826147ff565b9150508091505092915050565b600061495a838361489d565b905092915050565b6000602082019050919050565b600061497a8261472e565b6149848185614739565b9350836020820285016149968561474a565b8060005b858110156149d257848403895281516149b3858261494e565b94506149be83614962565b925060208a0199505060018101905061499a565b50829750879550505050505092915050565b600060208201905081810360008301526149fe818461496f565b905092915050565b614a0f81613c32565b82525050565b600082825260208201905092915050565b6000614a3182613cbd565b614a3b8185614a15565b9350614a4b818560208601613cd9565b614a5481613d0c565b840191505092915050565b600060c083016000830151614a776000860182613c95565b5060208301518482036020860152614a8f8282613d1d565b91505060408301518482036040860152614aa98282613d1d565b91505060608301518482036060860152614ac38282613d1d565b91505060808301518482036080860152614add8282613d1d565b91505060a083015184820360a0860152614af78282613d1d565b9150508091505092915050565b600060c083016000830151614b1c6000860182613c95565b5060208301518482036020860152614b348282613d1d565b91505060408301518482036040860152614b4e8282613d1d565b91505060608301518482036060860152614b688282613d1d565b91505060808301518482036080860152614b828282613d1d565b91505060a0830151614b9760a0860182613c95565b508091505092915050565b600060e082019050614bb7600083018a614a06565b614bc46020830189614a06565b8181036040830152614bd68188614a26565b90508181036060830152614bea8187614a26565b9050614bf96080830186614a06565b81810360a0830152614c0b8185614a5f565b905081810360c0830152614c1f8184614b04565b905098975050505050505050565b614c3681613ca4565b82525050565b600061010083016000830151614c556000860182613c95565b506020830151614c686020860182613c95565b5060408301518482036040860152614c808282613d1d565b91505060608301518482036060860152614c9a8282613d1d565b9150506080830151614caf6080860182613c95565b5060a083015184820360a0860152614cc78282613da7565b91505060c083015184820360c0860152614ce18282613e05565b91505060e083015184820360e0860152614cfb8282613eed565b9150508091505092915050565b600060c083016000830151614d206000860182613c95565b5060208301518482036020860152614d388282613d1d565b9150506040830151614d4d6040860182613c95565b506060830151614d606060860182613c95565b5060808301518482036080860152614d788282613d1d565b91505060a083015184820360a0860152614d928282613da7565b9150508091505092915050565b600060a082019050614db46000830188614a06565b614dc16020830187614c2d565b8181036040830152614dd38186614a26565b90508181036060830152614de78185614c3c565b90508181036080830152614dfb8184614d08565b90509695505050505050565b600081519050919050565b600082825260208201905092915050565b6000819050602082019050919050565b600060a083016000830151614e4b6000860182613c95565b506020830151614e5e6020860182613cae565b5060408301518482036040860152614e768282613d1d565b91505060608301518482036060860152614e908282613f44565b91505060808301518482036080860152614eaa8282614010565b9150508091505092915050565b6000614ec38383614e33565b905092915050565b6000602082019050919050565b6000614ee382614e07565b614eed8185614e12565b935083602082028501614eff85614e23565b8060005b85811015614f3b5784840389528151614f1c8582614eb7565b9450614f2783614ecb565b925060208a01995050600181019050614f03565b50829750879550505050505092915050565b60006020820190508181036000830152614f678184614ed8565b905092915050565b600067ffffffffffffffff821115614f8a57614f89614152565b5b602082029050602081019050919050565b614fa481613ca4565b8114614faf57600080fd5b50565b600081359050614fc181614f9b565b92915050565b600067ffffffffffffffff821115614fe257614fe1614152565b5b602082029050602081019050919050565b600061500661500184614fc7565b6141b2565b90508083825260208201905060208402830185811115615029576150286141f9565b5b835b81811015615052578061503e8882613c53565b84526020840193505060208101905061502b565b5050509392505050565b600082601f8301126150715761507061414d565b5b8135615081848260208601614ff3565b91505092915050565b600061012082840312156150a1576150a06141fe565b5b6150ac6101206141b2565b905060006150bc84828501613c53565b600083015250602082013567ffffffffffffffff8111156150e0576150df614203565b5b6150ec8482850161428f565b602083015250604082013567ffffffffffffffff8111156151105761510f614203565b5b61511c8482850161428f565b604083015250606082013567ffffffffffffffff8111156151405761513f614203565b5b61514c8482850161428f565b606083015250608082013567ffffffffffffffff8111156151705761516f614203565b5b61517c8482850161428f565b60808301525060a061519084828501613c53565b60a08301525060c06151a484828501613c53565b60c08301525060e082013567ffffffffffffffff8111156151c8576151c7614203565b5b6151d48482850161428f565b60e08301525061010082013567ffffffffffffffff8111156151f9576151f8614203565b5b6152058482850161428f565b6101008301525092915050565b600060608284031215615228576152276141fe565b5b61523260606141b2565b9050600061524284828501613c53565b600083015250602082013567ffffffffffffffff81111561526657615265614203565b5b6152728482850161428f565b602083015250604082013567ffffffffffffffff81111561529657615295614203565b5b6152a28482850161428f565b60408301525092915050565b600061010082840312156152c5576152c46141fe565b5b6152d06101006141b2565b905060006152e084828501613c53565b60008301525060206152f484828501613c53565b602083015250604082013567ffffffffffffffff81111561531857615317614203565b5b6153248482850161428f565b604083015250606082013567ffffffffffffffff81111561534857615347614203565b5b6153548482850161428f565b606083015250608061536884828501613c53565b60808301525060a082013567ffffffffffffffff81111561538c5761538b614203565b5b6153988482850161505c565b60a08301525060c082013567ffffffffffffffff8111156153bc576153bb614203565b5b6153c88482850161508a565b60c08301525060e082013567ffffffffffffffff8111156153ec576153eb614203565b5b6153f884828501615212565b60e08301525092915050565b600060c0828403121561541a576154196141fe565b5b61542460c06141b2565b9050600061543484828501613c53565b600083015250602082013567ffffffffffffffff81111561545857615457614203565b5b6154648482850161428f565b602083015250604061547884828501613c53565b604083015250606061548c84828501613c53565b606083015250608082013567ffffffffffffffff8111156154b0576154af614203565b5b6154bc8482850161428f565b60808301525060a082013567ffffffffffffffff8111156154e0576154df614203565b5b6154ec8482850161505c565b60a08301525092915050565b600060a0828403121561550e5761550d6141fe565b5b61551860a06141b2565b9050600061552884828501613c53565b600083015250602061553c84828501614fb2565b602083015250604082013567ffffffffffffffff8111156155605761555f614203565b5b61556c8482850161428f565b604083015250606082013567ffffffffffffffff8111156155905761558f614203565b5b61559c848285016152ae565b606083015250608082013567ffffffffffffffff8111156155c0576155bf614203565b5b6155cc84828501615404565b60808301525092915050565b60006155eb6155e684614f6f565b6141b2565b9050808382526020820190506020840283018581111561560e5761560d6141f9565b5b835b8181101561565557803567ffffffffffffffff8111156156335761563261414d565b5b80860161564089826154f8565b85526020850194505050602081019050615610565b5050509392505050565b600082601f8301126156745761567361414d565b5b81356156848482602086016155d8565b91505092915050565b600080604083850312156156a4576156a3613c28565b5b600083013567ffffffffffffffff8111156156c2576156c1613c2d565b5b6156ce8582860161565f565b92505060206156df85828601613c53565b9150509250929050565b7f4e487b7100000000000000000000000000000000000000000000000000000000600052603260045260246000fd5b7f4e487b7100000000000000000000000000000000000000000000000000000000600052602260045260246000fd5b6000600282049050600182168061575f57607f821691505b6020821081141561577357615772615718565b5b50919050565b7f4e487b7100000000000000000000000000000000000000000000000000000000600052601160045260246000fd5b60006157b382613c32565b91507fffffffffffffffffffffffffffffffffffffffffffffffffffffffffffffffff8214156157e6576157e5615779565b5b60018201905091905056fea26469706673582212208ad0575d59a8d432fabd873254540ae979a536121b2d5002cf6e124e049aaba464736f6c634300080b0033",
  "immutableReferences": {},
  "source": "// SPDX-License-Identifier: MIT\r\npragma solidity >=0.4.22 <0.9.0;\r\nimport \"./Remplissage.sol\";\r\n\r\ncontract RetraitCol is Remplissage {\r\n    //*********************************************************************************/\r\n    //second app\r\n    //******************************************************************************/\r\n    Operation[] public operationagrs;\r\n    OperationTank0[] public operationTankR;\r\n\r\n    function RetraitOperationTank(\r\n        OperationTank0[] memory operationTank,\r\n        uint256 count\r\n    ) public returns (OperationTank0[] memory tt0) {\r\n        for (uint256 i = 0; i < count; i++) {\r\n            operationTankR.push(operationTank[i]);\r\n        }\r\n        return (operationTankR);\r\n    }\r\n\r\n    //get all operations\r\n\r\n    function getOperationTanks()\r\n        public\r\n        view\r\n        returns (OperationTank0[] memory result)\r\n    {\r\n        return operationTankR;\r\n    }\r\n\r\n    function getOperationbycode(uint256 code, Operation[] memory operation2)\r\n        public\r\n        returns (Operation[] memory operationtwo)\r\n    {\r\n        for (uint256 i = 0; i < operationTankR.length; i++) {\r\n            if (operationTankR[i].operation.code == code) {\r\n                for (uint256 j = 0;j < operationTankR[i].tank.codeTank.length;j++)\r\n                   {\r\n                    for (uint256 f = 0; f < operation2.length; f++) {\r\n                        if (\r\n                            operation2[f].code ==\r\n                            operationTankR[i].tank.codeTank[j]\r\n                        ) {\r\n                            operationagrs.push(operation2[f]);\r\n                        }\r\n                    }\r\n                }\r\n            }\r\n        }\r\n        return operationagrs;\r\n    }\r\n\r\n    function getOperationFromAgrsbycode(uint256 code)\r\n        public\r\n        view\r\n        returns (OperationTank0 memory operation)\r\n    {\r\n        for (uint256 i = 0; i < operationTankR.length; i++) {\r\n            if (operationTankR[i].operation.code == code) {\r\n                return operationTankR[i];\r\n            }\r\n        }\r\n    }\r\n}\r\n",
  "sourcePath": "C:\\Users\\ASUS\\Desktop\\pfe\\PFE_Project2022(agric)\\PFE_Project2022\\PFE-FrontEnd\\contracts\\RetraitCol.sol",
  "compiler": {
    "name": "solc",
    "version": "0.8.11+commit.d7f03943.Emscripten.clang"
  },
  "schemaVersion": "3.4.5",
  "updatedAt": "2022-05-31T17:50:48.085Z",
  "networkType": "ethereum",
  "devdoc": {
    "kind": "dev",
    "methods": {},
    "version": 1
  },
  "userdoc": {
    "kind": "user",
    "methods": {},
    "version": 1
  }
}