{
  "contractName": "RetraitCol",
  "abi": [
    {
      "inputs": [
        {
          "internalType": "uint256",
          "name": "",
          "type": "uint256"
        }
      ],
      "name": "operationTankR",
      "outputs": [
        {
          "internalType": "uint256",
          "name": "idOpTank",
          "type": "uint256"
        },
        {
          "internalType": "int256",
          "name": "qteInsereTank",
          "type": "int256"
        },
        {
          "internalType": "string",
          "name": "date",
          "type": "string"
        },
        {
          "components": [
            {
              "internalType": "uint256",
              "name": "idOperation",
              "type": "uint256"
            },
            {
              "internalType": "uint256",
              "name": "poidsLait",
              "type": "uint256"
            },
            {
              "internalType": "string",
              "name": "dateOperation",
              "type": "string"
            },
            {
              "internalType": "string",
              "name": "typeOp",
              "type": "string"
            },
            {
              "internalType": "uint256",
              "name": "code",
              "type": "uint256"
            },
            {
              "internalType": "uint256[]",
              "name": "codeRemplissage",
              "type": "uint256[]"
            },
            {
              "components": [
                {
                  "internalType": "uint256",
                  "name": "idChef",
                  "type": "uint256"
                },
                {
                  "internalType": "string",
                  "name": "nom",
                  "type": "string"
                },
                {
                  "internalType": "string",
                  "name": "prenom",
                  "type": "string"
                },
                {
                  "internalType": "string",
                  "name": "email",
                  "type": "string"
                },
                {
                  "internalType": "string",
                  "name": "adress",
                  "type": "string"
                },
                {
                  "internalType": "uint256",
                  "name": "tel",
                  "type": "uint256"
                },
                {
                  "internalType": "uint256",
                  "name": "cin",
                  "type": "uint256"
                },
                {
                  "internalType": "string",
                  "name": "username",
                  "type": "string"
                },
                {
                  "internalType": "string",
                  "name": "password",
                  "type": "string"
                }
              ],
              "internalType": "struct Remplissage.Chef",
              "name": "chef",
              "type": "tuple"
            },
            {
              "components": [
                {
                  "internalType": "uint256",
                  "name": "idUsine",
                  "type": "uint256"
                },
                {
                  "internalType": "string",
                  "name": "nomUsine",
                  "type": "string"
                },
                {
                  "internalType": "string",
                  "name": "adresse",
                  "type": "string"
                }
              ],
              "internalType": "struct Remplissage.Usine",
              "name": "usine",
              "type": "tuple"
            }
          ],
          "internalType": "struct Remplissage.Operation01",
          "name": "operation",
          "type": "tuple"
        },
        {
          "components": [
            {
              "internalType": "uint256",
              "name": "idTank",
              "type": "uint256"
            },
            {
              "internalType": "string",
              "name": "matricule",
              "type": "string"
            },
            {
              "internalType": "uint256",
              "name": "poidVide",
              "type": "uint256"
            },
            {
              "internalType": "uint256",
              "name": "poidActuel",
              "type": "uint256"
            },
            {
              "internalType": "string",
              "name": "etat",
              "type": "string"
            },
            {
              "internalType": "uint256[]",
              "name": "codeTank",
              "type": "uint256[]"
            }
          ],
          "internalType": "struct Remplissage.Tank",
          "name": "tank",
          "type": "tuple"
        }
      ],
      "stateMutability": "view",
      "type": "function",
      "constant": true
    },
    {
      "inputs": [
        {
          "internalType": "uint256",
          "name": "",
          "type": "uint256"
        }
      ],
      "name": "operationagrs",
      "outputs": [
        {
          "internalType": "uint256",
          "name": "idOperation",
          "type": "uint256"
        },
        {
          "internalType": "uint256",
          "name": "code",
          "type": "uint256"
        },
        {
          "internalType": "string",
          "name": "dateOperation",
          "type": "string"
        },
        {
          "internalType": "string",
          "name": "typeOp",
          "type": "string"
        },
        {
          "internalType": "uint256",
          "name": "poidsLait",
          "type": "uint256"
        },
        {
          "components": [
            {
              "internalType": "uint256",
              "name": "idAgriculteur",
              "type": "uint256"
            },
            {
              "internalType": "string",
              "name": "nom",
              "type": "string"
            },
            {
              "internalType": "string",
              "name": "prenom",
              "type": "string"
            },
            {
              "internalType": "string",
              "name": "username",
              "type": "string"
            },
            {
              "internalType": "string",
              "name": "password",
              "type": "string"
            },
            {
              "internalType": "string",
              "name": "adress",
              "type": "string"
            }
          ],
          "internalType": "struct Remplissage.Agriculteur",
          "name": "agriculteur",
          "type": "tuple"
        },
        {
          "components": [
            {
              "internalType": "uint256",
              "name": "idCollecteur",
              "type": "uint256"
            },
            {
              "internalType": "string",
              "name": "nomCollecteur",
              "type": "string"
            },
            {
              "internalType": "string",
              "name": "matricule",
              "type": "string"
            },
            {
              "internalType": "string",
              "name": "adresse",
              "type": "string"
            },
            {
              "internalType": "uint256",
              "name": "tel",
              "type": "uint256"
            }
          ],
          "internalType": "struct Remplissage.Collecteur",
          "name": "collecteur",
          "type": "tuple"
        }
      ],
      "stateMutability": "view",
      "type": "function",
      "constant": true
    },
    {
      "inputs": [
        {
          "components": [
            {
              "internalType": "uint256",
              "name": "idOpTank",
              "type": "uint256"
            },
            {
              "internalType": "int256",
              "name": "qteInsereTank",
              "type": "int256"
            },
            {
              "internalType": "string",
              "name": "date",
              "type": "string"
            },
            {
              "components": [
                {
                  "internalType": "uint256",
                  "name": "idOperation",
                  "type": "uint256"
                },
                {
                  "internalType": "uint256",
                  "name": "poidsLait",
                  "type": "uint256"
                },
                {
                  "internalType": "string",
                  "name": "dateOperation",
                  "type": "string"
                },
                {
                  "internalType": "string",
                  "name": "typeOp",
                  "type": "string"
                },
                {
                  "internalType": "uint256",
                  "name": "code",
                  "type": "uint256"
                },
                {
                  "internalType": "uint256[]",
                  "name": "codeRemplissage",
                  "type": "uint256[]"
                },
                {
                  "components": [
                    {
                      "internalType": "uint256",
                      "name": "idChef",
                      "type": "uint256"
                    },
                    {
                      "internalType": "string",
                      "name": "nom",
                      "type": "string"
                    },
                    {
                      "internalType": "string",
                      "name": "prenom",
                      "type": "string"
                    },
                    {
                      "internalType": "string",
                      "name": "email",
                      "type": "string"
                    },
                    {
                      "internalType": "string",
                      "name": "adress",
                      "type": "string"
                    },
                    {
                      "internalType": "uint256",
                      "name": "tel",
                      "type": "uint256"
                    },
                    {
                      "internalType": "uint256",
                      "name": "cin",
                      "type": "uint256"
                    },
                    {
                      "internalType": "string",
                      "name": "username",
                      "type": "string"
                    },
                    {
                      "internalType": "string",
                      "name": "password",
                      "type": "string"
                    }
                  ],
                  "internalType": "struct Remplissage.Chef",
                  "name": "chef",
                  "type": "tuple"
                },
                {
                  "components": [
                    {
                      "internalType": "uint256",
                      "name": "idUsine",
                      "type": "uint256"
                    },
                    {
                      "internalType": "string",
                      "name": "nomUsine",
                      "type": "string"
                    },
                    {
                      "internalType": "string",
                      "name": "adresse",
                      "type": "string"
                    }
                  ],
                  "internalType": "struct Remplissage.Usine",
                  "name": "usine",
                  "type": "tuple"
                }
              ],
              "internalType": "struct Remplissage.Operation01",
              "name": "operation",
              "type": "tuple"
            },
            {
              "components": [
                {
                  "internalType": "uint256",
                  "name": "idTank",
                  "type": "uint256"
                },
                {
                  "internalType": "string",
                  "name": "matricule",
                  "type": "string"
                },
                {
                  "internalType": "uint256",
                  "name": "poidVide",
                  "type": "uint256"
                },
                {
                  "internalType": "uint256",
                  "name": "poidActuel",
                  "type": "uint256"
                },
                {
                  "internalType": "string",
                  "name": "etat",
                  "type": "string"
                },
                {
                  "internalType": "uint256[]",
                  "name": "codeTank",
                  "type": "uint256[]"
                }
              ],
              "internalType": "struct Remplissage.Tank",
              "name": "tank",
              "type": "tuple"
            }
          ],
          "internalType": "struct Remplissage.OperationTank0[]",
          "name": "operationTank",
          "type": "tuple[]"
        },
        {
          "internalType": "uint256",
          "name": "count",
          "type": "uint256"
        }
      ],
      "name": "RetraitOperationTank",
      "outputs": [
        {
          "components": [
            {
              "internalType": "uint256",
              "name": "idOpTank",
              "type": "uint256"
            },
            {
              "internalType": "int256",
              "name": "qteInsereTank",
              "type": "int256"
            },
            {
              "internalType": "string",
              "name": "date",
              "type": "string"
            },
            {
              "components": [
                {
                  "internalType": "uint256",
                  "name": "idOperation",
                  "type": "uint256"
                },
                {
                  "internalType": "uint256",
                  "name": "poidsLait",
                  "type": "uint256"
                },
                {
                  "internalType": "string",
                  "name": "dateOperation",
                  "type": "string"
                },
                {
                  "internalType": "string",
                  "name": "typeOp",
                  "type": "string"
                },
                {
                  "internalType": "uint256",
                  "name": "code",
                  "type": "uint256"
                },
                {
                  "internalType": "uint256[]",
                  "name": "codeRemplissage",
                  "type": "uint256[]"
                },
                {
                  "components": [
                    {
                      "internalType": "uint256",
                      "name": "idChef",
                      "type": "uint256"
                    },
                    {
                      "internalType": "string",
                      "name": "nom",
                      "type": "string"
                    },
                    {
                      "internalType": "string",
                      "name": "prenom",
                      "type": "string"
                    },
                    {
                      "internalType": "string",
                      "name": "email",
                      "type": "string"
                    },
                    {
                      "internalType": "string",
                      "name": "adress",
                      "type": "string"
                    },
                    {
                      "internalType": "uint256",
                      "name": "tel",
                      "type": "uint256"
                    },
                    {
                      "internalType": "uint256",
                      "name": "cin",
                      "type": "uint256"
                    },
                    {
                      "internalType": "string",
                      "name": "username",
                      "type": "string"
                    },
                    {
                      "internalType": "string",
                      "name": "password",
                      "type": "string"
                    }
                  ],
                  "internalType": "struct Remplissage.Chef",
                  "name": "chef",
                  "type": "tuple"
                },
                {
                  "components": [
                    {
                      "internalType": "uint256",
                      "name": "idUsine",
                      "type": "uint256"
                    },
                    {
                      "internalType": "string",
                      "name": "nomUsine",
                      "type": "string"
                    },
                    {
                      "internalType": "string",
                      "name": "adresse",
                      "type": "string"
                    }
                  ],
                  "internalType": "struct Remplissage.Usine",
                  "name": "usine",
                  "type": "tuple"
                }
              ],
              "internalType": "struct Remplissage.Operation01",
              "name": "operation",
              "type": "tuple"
            },
            {
              "components": [
                {
                  "internalType": "uint256",
                  "name": "idTank",
                  "type": "uint256"
                },
                {
                  "internalType": "string",
                  "name": "matricule",
                  "type": "string"
                },
                {
                  "internalType": "uint256",
                  "name": "poidVide",
                  "type": "uint256"
                },
                {
                  "internalType": "uint256",
                  "name": "poidActuel",
                  "type": "uint256"
                },
                {
                  "internalType": "string",
                  "name": "etat",
                  "type": "string"
                },
                {
                  "internalType": "uint256[]",
                  "name": "codeTank",
                  "type": "uint256[]"
                }
              ],
              "internalType": "struct Remplissage.Tank",
              "name": "tank",
              "type": "tuple"
            }
          ],
          "internalType": "struct Remplissage.OperationTank0[]",
          "name": "tt0",
          "type": "tuple[]"
        }
      ],
      "stateMutability": "nonpayable",
      "type": "function"
    },
    {
      "inputs": [],
      "name": "getOperationTanks",
      "outputs": [
        {
          "components": [
            {
              "internalType": "uint256",
              "name": "idOpTank",
              "type": "uint256"
            },
            {
              "internalType": "int256",
              "name": "qteInsereTank",
              "type": "int256"
            },
            {
              "internalType": "string",
              "name": "date",
              "type": "string"
            },
            {
              "components": [
                {
                  "internalType": "uint256",
                  "name": "idOperation",
                  "type": "uint256"
                },
                {
                  "internalType": "uint256",
                  "name": "poidsLait",
                  "type": "uint256"
                },
                {
                  "internalType": "string",
                  "name": "dateOperation",
                  "type": "string"
                },
                {
                  "internalType": "string",
                  "name": "typeOp",
                  "type": "string"
                },
                {
                  "internalType": "uint256",
                  "name": "code",
                  "type": "uint256"
                },
                {
                  "internalType": "uint256[]",
                  "name": "codeRemplissage",
                  "type": "uint256[]"
                },
                {
                  "components": [
                    {
                      "internalType": "uint256",
                      "name": "idChef",
                      "type": "uint256"
                    },
                    {
                      "internalType": "string",
                      "name": "nom",
                      "type": "string"
                    },
                    {
                      "internalType": "string",
                      "name": "prenom",
                      "type": "string"
                    },
                    {
                      "internalType": "string",
                      "name": "email",
                      "type": "string"
                    },
                    {
                      "internalType": "string",
                      "name": "adress",
                      "type": "string"
                    },
                    {
                      "internalType": "uint256",
                      "name": "tel",
                      "type": "uint256"
                    },
                    {
                      "internalType": "uint256",
                      "name": "cin",
                      "type": "uint256"
                    },
                    {
                      "internalType": "string",
                      "name": "username",
                      "type": "string"
                    },
                    {
                      "internalType": "string",
                      "name": "password",
                      "type": "string"
                    }
                  ],
                  "internalType": "struct Remplissage.Chef",
                  "name": "chef",
                  "type": "tuple"
                },
                {
                  "components": [
                    {
                      "internalType": "uint256",
                      "name": "idUsine",
                      "type": "uint256"
                    },
                    {
                      "internalType": "string",
                      "name": "nomUsine",
                      "type": "string"
                    },
                    {
                      "internalType": "string",
                      "name": "adresse",
                      "type": "string"
                    }
                  ],
                  "internalType": "struct Remplissage.Usine",
                  "name": "usine",
                  "type": "tuple"
                }
              ],
              "internalType": "struct Remplissage.Operation01",
              "name": "operation",
              "type": "tuple"
            },
            {
              "components": [
                {
                  "internalType": "uint256",
                  "name": "idTank",
                  "type": "uint256"
                },
                {
                  "internalType": "string",
                  "name": "matricule",
                  "type": "string"
                },
                {
                  "internalType": "uint256",
                  "name": "poidVide",
                  "type": "uint256"
                },
                {
                  "internalType": "uint256",
                  "name": "poidActuel",
                  "type": "uint256"
                },
                {
                  "internalType": "string",
                  "name": "etat",
                  "type": "string"
                },
                {
                  "internalType": "uint256[]",
                  "name": "codeTank",
                  "type": "uint256[]"
                }
              ],
              "internalType": "struct Remplissage.Tank",
              "name": "tank",
              "type": "tuple"
            }
          ],
          "internalType": "struct Remplissage.OperationTank0[]",
          "name": "result",
          "type": "tuple[]"
        }
      ],
      "stateMutability": "view",
      "type": "function",
      "constant": true
    },
    {
      "inputs": [
        {
          "internalType": "uint256",
          "name": "code",
          "type": "uint256"
        },
        {
          "components": [
            {
              "internalType": "uint256",
              "name": "idOperation",
              "type": "uint256"
            },
            {
              "internalType": "uint256",
              "name": "code",
              "type": "uint256"
            },
            {
              "internalType": "string",
              "name": "dateOperation",
              "type": "string"
            },
            {
              "internalType": "string",
              "name": "typeOp",
              "type": "string"
            },
            {
              "internalType": "uint256",
              "name": "poidsLait",
              "type": "uint256"
            },
            {
              "components": [
                {
                  "internalType": "uint256",
                  "name": "idAgriculteur",
                  "type": "uint256"
                },
                {
                  "internalType": "string",
                  "name": "nom",
                  "type": "string"
                },
                {
                  "internalType": "string",
                  "name": "prenom",
                  "type": "string"
                },
                {
                  "internalType": "string",
                  "name": "username",
                  "type": "string"
                },
                {
                  "internalType": "string",
                  "name": "password",
                  "type": "string"
                },
                {
                  "internalType": "string",
                  "name": "adress",
                  "type": "string"
                }
              ],
              "internalType": "struct Remplissage.Agriculteur",
              "name": "agriculteur",
              "type": "tuple"
            },
            {
              "components": [
                {
                  "internalType": "uint256",
                  "name": "idCollecteur",
                  "type": "uint256"
                },
                {
                  "internalType": "string",
                  "name": "nomCollecteur",
                  "type": "string"
                },
                {
                  "internalType": "string",
                  "name": "matricule",
                  "type": "string"
                },
                {
                  "internalType": "string",
                  "name": "adresse",
                  "type": "string"
                },
                {
                  "internalType": "uint256",
                  "name": "tel",
                  "type": "uint256"
                }
              ],
              "internalType": "struct Remplissage.Collecteur",
              "name": "collecteur",
              "type": "tuple"
            }
          ],
          "internalType": "struct Remplissage.Operation[]",
          "name": "operation2",
          "type": "tuple[]"
        }
      ],
      "name": "getOperationbycode",
      "outputs": [
        {
          "components": [
            {
              "internalType": "uint256",
              "name": "idOperation",
              "type": "uint256"
            },
            {
              "internalType": "uint256",
              "name": "code",
              "type": "uint256"
            },
            {
              "internalType": "string",
              "name": "dateOperation",
              "type": "string"
            },
            {
              "internalType": "string",
              "name": "typeOp",
              "type": "string"
            },
            {
              "internalType": "uint256",
              "name": "poidsLait",
              "type": "uint256"
            },
            {
              "components": [
                {
                  "internalType": "uint256",
                  "name": "idAgriculteur",
                  "type": "uint256"
                },
                {
                  "internalType": "string",
                  "name": "nom",
                  "type": "string"
                },
                {
                  "internalType": "string",
                  "name": "prenom",
                  "type": "string"
                },
                {
                  "internalType": "string",
                  "name": "username",
                  "type": "string"
                },
                {
                  "internalType": "string",
                  "name": "password",
                  "type": "string"
                },
                {
                  "internalType": "string",
                  "name": "adress",
                  "type": "string"
                }
              ],
              "internalType": "struct Remplissage.Agriculteur",
              "name": "agriculteur",
              "type": "tuple"
            },
            {
              "components": [
                {
                  "internalType": "uint256",
                  "name": "idCollecteur",
                  "type": "uint256"
                },
                {
                  "internalType": "string",
                  "name": "nomCollecteur",
                  "type": "string"
                },
                {
                  "internalType": "string",
                  "name": "matricule",
                  "type": "string"
                },
                {
                  "internalType": "string",
                  "name": "adresse",
                  "type": "string"
                },
                {
                  "internalType": "uint256",
                  "name": "tel",
                  "type": "uint256"
                }
              ],
              "internalType": "struct Remplissage.Collecteur",
              "name": "collecteur",
              "type": "tuple"
            }
          ],
          "internalType": "struct Remplissage.Operation[]",
          "name": "operationtwo",
          "type": "tuple[]"
        }
      ],
      "stateMutability": "nonpayable",
      "type": "function"
    },
    {
      "inputs": [
        {
          "internalType": "uint256",
          "name": "code",
          "type": "uint256"
        }
      ],
      "name": "getOperationFromAgrsbycode",
      "outputs": [
        {
          "components": [
            {
              "internalType": "uint256",
              "name": "idOpTank",
              "type": "uint256"
            },
            {
              "internalType": "int256",
              "name": "qteInsereTank",
              "type": "int256"
            },
            {
              "internalType": "string",
              "name": "date",
              "type": "string"
            },
            {
              "components": [
                {
                  "internalType": "uint256",
                  "name": "idOperation",
                  "type": "uint256"
                },
                {
                  "internalType": "uint256",
                  "name": "poidsLait",
                  "type": "uint256"
                },
                {
                  "internalType": "string",
                  "name": "dateOperation",
                  "type": "string"
                },
                {
                  "internalType": "string",
                  "name": "typeOp",
                  "type": "string"
                },
                {
                  "internalType": "uint256",
                  "name": "code",
                  "type": "uint256"
                },
                {
                  "internalType": "uint256[]",
                  "name": "codeRemplissage",
                  "type": "uint256[]"
                },
                {
                  "components": [
                    {
                      "internalType": "uint256",
                      "name": "idChef",
                      "type": "uint256"
                    },
                    {
                      "internalType": "string",
                      "name": "nom",
                      "type": "string"
                    },
                    {
                      "internalType": "string",
                      "name": "prenom",
                      "type": "string"
                    },
                    {
                      "internalType": "string",
                      "name": "email",
                      "type": "string"
                    },
                    {
                      "internalType": "string",
                      "name": "adress",
                      "type": "string"
                    },
                    {
                      "internalType": "uint256",
                      "name": "tel",
                      "type": "uint256"
                    },
                    {
                      "internalType": "uint256",
                      "name": "cin",
                      "type": "uint256"
                    },
                    {
                      "internalType": "string",
                      "name": "username",
                      "type": "string"
                    },
                    {
                      "internalType": "string",
                      "name": "password",
                      "type": "string"
                    }
                  ],
                  "internalType": "struct Remplissage.Chef",
                  "name": "chef",
                  "type": "tuple"
                },
                {
                  "components": [
                    {
                      "internalType": "uint256",
                      "name": "idUsine",
                      "type": "uint256"
                    },
                    {
                      "internalType": "string",
                      "name": "nomUsine",
                      "type": "string"
                    },
                    {
                      "internalType": "string",
                      "name": "adresse",
                      "type": "string"
                    }
                  ],
                  "internalType": "struct Remplissage.Usine",
                  "name": "usine",
                  "type": "tuple"
                }
              ],
              "internalType": "struct Remplissage.Operation01",
              "name": "operation",
              "type": "tuple"
            },
            {
              "components": [
                {
                  "internalType": "uint256",
                  "name": "idTank",
                  "type": "uint256"
                },
                {
                  "internalType": "string",
                  "name": "matricule",
                  "type": "string"
                },
                {
                  "internalType": "uint256",
                  "name": "poidVide",
                  "type": "uint256"
                },
                {
                  "internalType": "uint256",
                  "name": "poidActuel",
                  "type": "uint256"
                },
                {
                  "internalType": "string",
                  "name": "etat",
                  "type": "string"
                },
                {
                  "internalType": "uint256[]",
                  "name": "codeTank",
                  "type": "uint256[]"
                }
              ],
              "internalType": "struct Remplissage.Tank",
              "name": "tank",
              "type": "tuple"
            }
          ],
          "internalType": "struct Remplissage.OperationTank0",
          "name": "operation",
          "type": "tuple"
        }
      ],
      "stateMutability": "view",
      "type": "function",
      "constant": true
    }
  ],
  "bytecode": "0x608060405234801561001057600080fd5b5061568280620000216000396000f3fe608060405234801561001057600080fd5b50600436106100625760003560e01c806316638829146100675780638724a43014610097578063a96fe5f0146100cd578063c9c28e0f14610101578063e30443171461011f578063ee4f3dc81461014f575b600080fd5b610081600480360381019061007c9190613b27565b61017f565b60405161008e9190613fea565b60405180910390f35b6100b160048036038101906100ac9190613b27565b610afa565b6040516100c4979695949392919061418e565b60405180910390f35b6100e760048036038101906100e29190613b27565b61111e565b6040516100f895949392919061438b565b60405180910390f35b610109611a16565b6040516101169190614539565b60405180910390f35b61013960048036038101906101349190614dbd565b612359565b6040516101469190614539565b60405180910390f35b6101696004803603810190610164919061522a565b612f5e565b6040516101769190615522565b60405180910390f35b6101876138be565b60005b600180549050811015610af35782600182815481106101ac576101ab615544565b5b90600052602060002090601b0201600301600401541415610ae057600181815481106101db576101da615544565b5b90600052602060002090601b02016040518060a00160405290816000820154815260200160018201548152602001600282018054610218906155a2565b80601f0160208091040260200160405190810160405280929190818152602001828054610244906155a2565b80156102915780601f1061026657610100808354040283529160200191610291565b820191906000526020600020905b81548152906001019060200180831161027457829003601f168201915b50505050508152602001600382016040518061010001604052908160008201548152602001600182015481526020016002820180546102cf906155a2565b80601f01602080910402602001604051908101604052809291908181526020018280546102fb906155a2565b80156103485780601f1061031d57610100808354040283529160200191610348565b820191906000526020600020905b81548152906001019060200180831161032b57829003601f168201915b50505050508152602001600382018054610361906155a2565b80601f016020809104026020016040519081016040528092919081815260200182805461038d906155a2565b80156103da5780601f106103af576101008083540402835291602001916103da565b820191906000526020600020905b8154815290600101906020018083116103bd57829003601f168201915b50505050508152602001600482015481526020016005820180548060200260200160405190810160405280929190818152602001828054801561043c57602002820191906000526020600020905b815481526020019060010190808311610428575b50505050508152602001600682016040518061012001604052908160008201548152602001600182018054610470906155a2565b80601f016020809104026020016040519081016040528092919081815260200182805461049c906155a2565b80156104e95780601f106104be576101008083540402835291602001916104e9565b820191906000526020600020905b8154815290600101906020018083116104cc57829003601f168201915b50505050508152602001600282018054610502906155a2565b80601f016020809104026020016040519081016040528092919081815260200182805461052e906155a2565b801561057b5780601f106105505761010080835404028352916020019161057b565b820191906000526020600020905b81548152906001019060200180831161055e57829003601f168201915b50505050508152602001600382018054610594906155a2565b80601f01602080910402602001604051908101604052809291908181526020018280546105c0906155a2565b801561060d5780601f106105e25761010080835404028352916020019161060d565b820191906000526020600020905b8154815290600101906020018083116105f057829003601f168201915b50505050508152602001600482018054610626906155a2565b80601f0160208091040260200160405190810160405280929190818152602001828054610652906155a2565b801561069f5780601f106106745761010080835404028352916020019161069f565b820191906000526020600020905b81548152906001019060200180831161068257829003601f168201915b5050505050815260200160058201548152602001600682015481526020016007820180546106cc906155a2565b80601f01602080910402602001604051908101604052809291908181526020018280546106f8906155a2565b80156107455780601f1061071a57610100808354040283529160200191610745565b820191906000526020600020905b81548152906001019060200180831161072857829003601f168201915b5050505050815260200160088201805461075e906155a2565b80601f016020809104026020016040519081016040528092919081815260200182805461078a906155a2565b80156107d75780601f106107ac576101008083540402835291602001916107d7565b820191906000526020600020905b8154815290600101906020018083116107ba57829003601f168201915b5050505050815250508152602001600f82016040518060600160405290816000820154815260200160018201805461080e906155a2565b80601f016020809104026020016040519081016040528092919081815260200182805461083a906155a2565b80156108875780601f1061085c57610100808354040283529160200191610887565b820191906000526020600020905b81548152906001019060200180831161086a57829003601f168201915b505050505081526020016002820180546108a0906155a2565b80601f01602080910402602001604051908101604052809291908181526020018280546108cc906155a2565b80156109195780601f106108ee57610100808354040283529160200191610919565b820191906000526020600020905b8154815290600101906020018083116108fc57829003601f168201915b505050505081525050815250508152602001601582016040518060c001604052908160008201548152602001600182018054610954906155a2565b80601f0160208091040260200160405190810160405280929190818152602001828054610980906155a2565b80156109cd5780601f106109a2576101008083540402835291602001916109cd565b820191906000526020600020905b8154815290600101906020018083116109b057829003601f168201915b5050505050815260200160028201548152602001600382015481526020016004820180546109fa906155a2565b80601f0160208091040260200160405190810160405280929190818152602001828054610a26906155a2565b8015610a735780601f10610a4857610100808354040283529160200191610a73565b820191906000526020600020905b815481529060010190602001808311610a5657829003601f168201915b5050505050815260200160058201805480602002602001604051908101604052809291908181526020018280548015610acb57602002820191906000526020600020905b815481526020019060010190808311610ab7575b50505050508152505081525050915050610af5565b8080610aeb90615603565b91505061018a565b505b919050565b60008181548110610b0a57600080fd5b9060005260206000209060100201600091509050806000015490806001015490806002018054610b39906155a2565b80601f0160208091040260200160405190810160405280929190818152602001828054610b65906155a2565b8015610bb25780601f10610b8757610100808354040283529160200191610bb2565b820191906000526020600020905b815481529060010190602001808311610b9557829003601f168201915b505050505090806003018054610bc7906155a2565b80601f0160208091040260200160405190810160405280929190818152602001828054610bf3906155a2565b8015610c405780601f10610c1557610100808354040283529160200191610c40565b820191906000526020600020905b815481529060010190602001808311610c2357829003601f168201915b505050505090806004015490806005016040518060c001604052908160008201548152602001600182018054610c75906155a2565b80601f0160208091040260200160405190810160405280929190818152602001828054610ca1906155a2565b8015610cee5780601f10610cc357610100808354040283529160200191610cee565b820191906000526020600020905b815481529060010190602001808311610cd157829003601f168201915b50505050508152602001600282018054610d07906155a2565b80601f0160208091040260200160405190810160405280929190818152602001828054610d33906155a2565b8015610d805780601f10610d5557610100808354040283529160200191610d80565b820191906000526020600020905b815481529060010190602001808311610d6357829003601f168201915b50505050508152602001600382018054610d99906155a2565b80601f0160208091040260200160405190810160405280929190818152602001828054610dc5906155a2565b8015610e125780601f10610de757610100808354040283529160200191610e12565b820191906000526020600020905b815481529060010190602001808311610df557829003601f168201915b50505050508152602001600482018054610e2b906155a2565b80601f0160208091040260200160405190810160405280929190818152602001828054610e57906155a2565b8015610ea45780601f10610e7957610100808354040283529160200191610ea4565b820191906000526020600020905b815481529060010190602001808311610e8757829003601f168201915b50505050508152602001600582018054610ebd906155a2565b80601f0160208091040260200160405190810160405280929190818152602001828054610ee9906155a2565b8015610f365780601f10610f0b57610100808354040283529160200191610f36565b820191906000526020600020905b815481529060010190602001808311610f1957829003601f168201915b5050505050815250509080600b016040518060a001604052908160008201548152602001600182018054610f69906155a2565b80601f0160208091040260200160405190810160405280929190818152602001828054610f95906155a2565b8015610fe25780601f10610fb757610100808354040283529160200191610fe2565b820191906000526020600020905b815481529060010190602001808311610fc557829003601f168201915b50505050508152602001600282018054610ffb906155a2565b80601f0160208091040260200160405190810160405280929190818152602001828054611027906155a2565b80156110745780601f1061104957610100808354040283529160200191611074565b820191906000526020600020905b81548152906001019060200180831161105757829003601f168201915b5050505050815260200160038201805461108d906155a2565b80601f01602080910402602001604051908101604052809291908181526020018280546110b9906155a2565b80156111065780601f106110db57610100808354040283529160200191611106565b820191906000526020600020905b8154815290600101906020018083116110e957829003601f168201915b50505050508152602001600482015481525050905087565b6001818154811061112e57600080fd5b90600052602060002090601b020160009150905080600001549080600101549080600201805461115d906155a2565b80601f0160208091040260200160405190810160405280929190818152602001828054611189906155a2565b80156111d65780601f106111ab576101008083540402835291602001916111d6565b820191906000526020600020905b8154815290600101906020018083116111b957829003601f168201915b50505050509080600301604051806101000160405290816000820154815260200160018201548152602001600282018054611210906155a2565b80601f016020809104026020016040519081016040528092919081815260200182805461123c906155a2565b80156112895780601f1061125e57610100808354040283529160200191611289565b820191906000526020600020905b81548152906001019060200180831161126c57829003601f168201915b505050505081526020016003820180546112a2906155a2565b80601f01602080910402602001604051908101604052809291908181526020018280546112ce906155a2565b801561131b5780601f106112f05761010080835404028352916020019161131b565b820191906000526020600020905b8154815290600101906020018083116112fe57829003601f168201915b50505050508152602001600482015481526020016005820180548060200260200160405190810160405280929190818152602001828054801561137d57602002820191906000526020600020905b815481526020019060010190808311611369575b505050505081526020016006820160405180610120016040529081600082015481526020016001820180546113b1906155a2565b80601f01602080910402602001604051908101604052809291908181526020018280546113dd906155a2565b801561142a5780601f106113ff5761010080835404028352916020019161142a565b820191906000526020600020905b81548152906001019060200180831161140d57829003601f168201915b50505050508152602001600282018054611443906155a2565b80601f016020809104026020016040519081016040528092919081815260200182805461146f906155a2565b80156114bc5780601f10611491576101008083540402835291602001916114bc565b820191906000526020600020905b81548152906001019060200180831161149f57829003601f168201915b505050505081526020016003820180546114d5906155a2565b80601f0160208091040260200160405190810160405280929190818152602001828054611501906155a2565b801561154e5780601f106115235761010080835404028352916020019161154e565b820191906000526020600020905b81548152906001019060200180831161153157829003601f168201915b50505050508152602001600482018054611567906155a2565b80601f0160208091040260200160405190810160405280929190818152602001828054611593906155a2565b80156115e05780601f106115b5576101008083540402835291602001916115e0565b820191906000526020600020905b8154815290600101906020018083116115c357829003601f168201915b50505050508152602001600582015481526020016006820154815260200160078201805461160d906155a2565b80601f0160208091040260200160405190810160405280929190818152602001828054611639906155a2565b80156116865780601f1061165b57610100808354040283529160200191611686565b820191906000526020600020905b81548152906001019060200180831161166957829003601f168201915b5050505050815260200160088201805461169f906155a2565b80601f01602080910402602001604051908101604052809291908181526020018280546116cb906155a2565b80156117185780601f106116ed57610100808354040283529160200191611718565b820191906000526020600020905b8154815290600101906020018083116116fb57829003601f168201915b5050505050815250508152602001600f82016040518060600160405290816000820154815260200160018201805461174f906155a2565b80601f016020809104026020016040519081016040528092919081815260200182805461177b906155a2565b80156117c85780601f1061179d576101008083540402835291602001916117c8565b820191906000526020600020905b8154815290600101906020018083116117ab57829003601f168201915b505050505081526020016002820180546117e1906155a2565b80601f016020809104026020016040519081016040528092919081815260200182805461180d906155a2565b801561185a5780601f1061182f5761010080835404028352916020019161185a565b820191906000526020600020905b81548152906001019060200180831161183d57829003601f168201915b5050505050815250508152505090806015016040518060c001604052908160008201548152602001600182018054611891906155a2565b80601f01602080910402602001604051908101604052809291908181526020018280546118bd906155a2565b801561190a5780601f106118df5761010080835404028352916020019161190a565b820191906000526020600020905b8154815290600101906020018083116118ed57829003601f168201915b505050505081526020016002820154815260200160038201548152602001600482018054611937906155a2565b80601f0160208091040260200160405190810160405280929190818152602001828054611963906155a2565b80156119b05780601f10611985576101008083540402835291602001916119b0565b820191906000526020600020905b81548152906001019060200180831161199357829003601f168201915b5050505050815260200160058201805480602002602001604051908101604052809291908181526020018280548015611a0857602002820191906000526020600020905b8154815260200190600101908083116119f4575b505050505081525050905085565b60606001805480602002602001604051908101604052809291908181526020016000905b8282101561235057838290600052602060002090601b02016040518060a00160405290816000820154815260200160018201548152602001600282018054611a81906155a2565b80601f0160208091040260200160405190810160405280929190818152602001828054611aad906155a2565b8015611afa5780601f10611acf57610100808354040283529160200191611afa565b820191906000526020600020905b815481529060010190602001808311611add57829003601f168201915b5050505050815260200160038201604051806101000160405290816000820154815260200160018201548152602001600282018054611b38906155a2565b80601f0160208091040260200160405190810160405280929190818152602001828054611b64906155a2565b8015611bb15780601f10611b8657610100808354040283529160200191611bb1565b820191906000526020600020905b815481529060010190602001808311611b9457829003601f168201915b50505050508152602001600382018054611bca906155a2565b80601f0160208091040260200160405190810160405280929190818152602001828054611bf6906155a2565b8015611c435780601f10611c1857610100808354040283529160200191611c43565b820191906000526020600020905b815481529060010190602001808311611c2657829003601f168201915b505050505081526020016004820154815260200160058201805480602002602001604051908101604052809291908181526020018280548015611ca557602002820191906000526020600020905b815481526020019060010190808311611c91575b50505050508152602001600682016040518061012001604052908160008201548152602001600182018054611cd9906155a2565b80601f0160208091040260200160405190810160405280929190818152602001828054611d05906155a2565b8015611d525780601f10611d2757610100808354040283529160200191611d52565b820191906000526020600020905b815481529060010190602001808311611d3557829003601f168201915b50505050508152602001600282018054611d6b906155a2565b80601f0160208091040260200160405190810160405280929190818152602001828054611d97906155a2565b8015611de45780601f10611db957610100808354040283529160200191611de4565b820191906000526020600020905b815481529060010190602001808311611dc757829003601f168201915b50505050508152602001600382018054611dfd906155a2565b80601f0160208091040260200160405190810160405280929190818152602001828054611e29906155a2565b8015611e765780601f10611e4b57610100808354040283529160200191611e76565b820191906000526020600020905b815481529060010190602001808311611e5957829003601f168201915b50505050508152602001600482018054611e8f906155a2565b80601f0160208091040260200160405190810160405280929190818152602001828054611ebb906155a2565b8015611f085780601f10611edd57610100808354040283529160200191611f08565b820191906000526020600020905b815481529060010190602001808311611eeb57829003601f168201915b505050505081526020016005820154815260200160068201548152602001600782018054611f35906155a2565b80601f0160208091040260200160405190810160405280929190818152602001828054611f61906155a2565b8015611fae5780601f10611f8357610100808354040283529160200191611fae565b820191906000526020600020905b815481529060010190602001808311611f9157829003601f168201915b50505050508152602001600882018054611fc7906155a2565b80601f0160208091040260200160405190810160405280929190818152602001828054611ff3906155a2565b80156120405780601f1061201557610100808354040283529160200191612040565b820191906000526020600020905b81548152906001019060200180831161202357829003601f168201915b5050505050815250508152602001600f820160405180606001604052908160008201548152602001600182018054612077906155a2565b80601f01602080910402602001604051908101604052809291908181526020018280546120a3906155a2565b80156120f05780601f106120c5576101008083540402835291602001916120f0565b820191906000526020600020905b8154815290600101906020018083116120d357829003601f168201915b50505050508152602001600282018054612109906155a2565b80601f0160208091040260200160405190810160405280929190818152602001828054612135906155a2565b80156121825780601f1061215757610100808354040283529160200191612182565b820191906000526020600020905b81548152906001019060200180831161216557829003601f168201915b505050505081525050815250508152602001601582016040518060c0016040529081600082015481526020016001820180546121bd906155a2565b80601f01602080910402602001604051908101604052809291908181526020018280546121e9906155a2565b80156122365780601f1061220b57610100808354040283529160200191612236565b820191906000526020600020905b81548152906001019060200180831161221957829003601f168201915b505050505081526020016002820154815260200160038201548152602001600482018054612263906155a2565b80601f016020809104026020016040519081016040528092919081815260200182805461228f906155a2565b80156122dc5780601f106122b1576101008083540402835291602001916122dc565b820191906000526020600020905b8154815290600101906020018083116122bf57829003601f168201915b505050505081526020016005820180548060200260200160405190810160405280929190818152602001828054801561233457602002820191906000526020600020905b815481526020019060010190808311612320575b5050505050815250508152505081526020019060010190611a3a565b50505050905090565b606060005b8281101561261957600184828151811061237b5761237a615544565b5b602002602001015190806001815401808255809150506001900390600052602060002090601b0201600090919091909150600082015181600001556020820151816001015560408201518160020190805190602001906123dc9291906138f9565b50606082015181600301600082015181600001556020820151816001015560408201518160020190805190602001906124169291906138f9565b5060608201518160030190805190602001906124339291906138f9565b506080820151816004015560a082015181600501908051906020019061245a92919061397f565b5060c08201518160060160008201518160000155602082015181600101908051906020019061248a9291906138f9565b5060408201518160020190805190602001906124a79291906138f9565b5060608201518160030190805190602001906124c49291906138f9565b5060808201518160040190805190602001906124e19291906138f9565b5060a0820151816005015560c0820151816006015560e08201518160070190805190602001906125129291906138f9565b506101008201518160080190805190602001906125309291906138f9565b50505060e082015181600f016000820151816000015560208201518160010190805190602001906125629291906138f9565b50604082015181600201908051906020019061257f9291906138f9565b50505050506080820151816015016000820151816000015560208201518160010190805190602001906125b39291906138f9565b50604082015181600201556060820151816003015560808201518160040190805190602001906125e49291906138f9565b5060a082015181600501908051906020019061260192919061397f565b5050505050808061261190615603565b91505061235e565b506001805480602002602001604051908101604052809291908181526020016000905b82821015612f5257838290600052602060002090601b02016040518060a00160405290816000820154815260200160018201548152602001600282018054612683906155a2565b80601f01602080910402602001604051908101604052809291908181526020018280546126af906155a2565b80156126fc5780601f106126d1576101008083540402835291602001916126fc565b820191906000526020600020905b8154815290600101906020018083116126df57829003601f168201915b505050505081526020016003820160405180610100016040529081600082015481526020016001820154815260200160028201805461273a906155a2565b80601f0160208091040260200160405190810160405280929190818152602001828054612766906155a2565b80156127b35780601f10612788576101008083540402835291602001916127b3565b820191906000526020600020905b81548152906001019060200180831161279657829003601f168201915b505050505081526020016003820180546127cc906155a2565b80601f01602080910402602001604051908101604052809291908181526020018280546127f8906155a2565b80156128455780601f1061281a57610100808354040283529160200191612845565b820191906000526020600020905b81548152906001019060200180831161282857829003601f168201915b5050505050815260200160048201548152602001600582018054806020026020016040519081016040528092919081815260200182805480156128a757602002820191906000526020600020905b815481526020019060010190808311612893575b505050505081526020016006820160405180610120016040529081600082015481526020016001820180546128db906155a2565b80601f0160208091040260200160405190810160405280929190818152602001828054612907906155a2565b80156129545780601f1061292957610100808354040283529160200191612954565b820191906000526020600020905b81548152906001019060200180831161293757829003601f168201915b5050505050815260200160028201805461296d906155a2565b80601f0160208091040260200160405190810160405280929190818152602001828054612999906155a2565b80156129e65780601f106129bb576101008083540402835291602001916129e6565b820191906000526020600020905b8154815290600101906020018083116129c957829003601f168201915b505050505081526020016003820180546129ff906155a2565b80601f0160208091040260200160405190810160405280929190818152602001828054612a2b906155a2565b8015612a785780601f10612a4d57610100808354040283529160200191612a78565b820191906000526020600020905b815481529060010190602001808311612a5b57829003601f168201915b50505050508152602001600482018054612a91906155a2565b80601f0160208091040260200160405190810160405280929190818152602001828054612abd906155a2565b8015612b0a5780601f10612adf57610100808354040283529160200191612b0a565b820191906000526020600020905b815481529060010190602001808311612aed57829003601f168201915b505050505081526020016005820154815260200160068201548152602001600782018054612b37906155a2565b80601f0160208091040260200160405190810160405280929190818152602001828054612b63906155a2565b8015612bb05780601f10612b8557610100808354040283529160200191612bb0565b820191906000526020600020905b815481529060010190602001808311612b9357829003601f168201915b50505050508152602001600882018054612bc9906155a2565b80601f0160208091040260200160405190810160405280929190818152602001828054612bf5906155a2565b8015612c425780601f10612c1757610100808354040283529160200191612c42565b820191906000526020600020905b815481529060010190602001808311612c2557829003601f168201915b5050505050815250508152602001600f820160405180606001604052908160008201548152602001600182018054612c79906155a2565b80601f0160208091040260200160405190810160405280929190818152602001828054612ca5906155a2565b8015612cf25780601f10612cc757610100808354040283529160200191612cf2565b820191906000526020600020905b815481529060010190602001808311612cd557829003601f168201915b50505050508152602001600282018054612d0b906155a2565b80601f0160208091040260200160405190810160405280929190818152602001828054612d37906155a2565b8015612d845780601f10612d5957610100808354040283529160200191612d84565b820191906000526020600020905b815481529060010190602001808311612d6757829003601f168201915b505050505081525050815250508152602001601582016040518060c001604052908160008201548152602001600182018054612dbf906155a2565b80601f0160208091040260200160405190810160405280929190818152602001828054612deb906155a2565b8015612e385780601f10612e0d57610100808354040283529160200191612e38565b820191906000526020600020905b815481529060010190602001808311612e1b57829003601f168201915b505050505081526020016002820154815260200160038201548152602001600482018054612e65906155a2565b80601f0160208091040260200160405190810160405280929190818152602001828054612e91906155a2565b8015612ede5780601f10612eb357610100808354040283529160200191612ede565b820191906000526020600020905b815481529060010190602001808311612ec157829003601f168201915b5050505050815260200160058201805480602002602001604051908101604052809291908181526020018280548015612f3657602002820191906000526020600020905b815481526020019060010190808311612f22575b505050505081525050815250508152602001906001019061263c565b50505050905092915050565b606060005b600180549050811015613245578360018281548110612f8557612f84615544565b5b90600052602060002090601b02016003016004015414156132325760005b60018281548110612fb757612fb6615544565b5b90600052602060002090601b0201601501600501805490508110156132305760005b845181101561321c5760018381548110612ff657612ff5615544565b5b90600052602060002090601b0201601501600501828154811061301c5761301b615544565b5b906000526020600020015485828151811061303a57613039615544565b5b602002602001015160200151141561320957600085828151811061306157613060615544565b5b60200260200101519080600181540180825580915050600190039060005260206000209060100201600090919091909150600082015181600001556020820151816001015560408201518160020190805190602001906130c29291906138f9565b5060608201518160030190805190602001906130df9291906138f9565b506080820151816004015560a0820151816005016000820151816000015560208201518160010190805190602001906131199291906138f9565b5060408201518160020190805190602001906131369291906138f9565b5060608201518160030190805190602001906131539291906138f9565b5060808201518160040190805190602001906131709291906138f9565b5060a082015181600501908051906020019061318d9291906138f9565b50505060c082015181600b016000820151816000015560208201518160010190805190602001906131bf9291906138f9565b5060408201518160020190805190602001906131dc9291906138f9565b5060608201518160030190805190602001906131f99291906138f9565b5060808201518160040155505050505b808061321490615603565b915050612fd9565b50808061322890615603565b915050612fa3565b505b808061323d90615603565b915050612f63565b506000805480602002602001604051908101604052809291908181526020016000905b828210156138b257838290600052602060002090601002016040518060e001604052908160008201548152602001600182015481526020016002820180546132af906155a2565b80601f01602080910402602001604051908101604052809291908181526020018280546132db906155a2565b80156133285780601f106132fd57610100808354040283529160200191613328565b820191906000526020600020905b81548152906001019060200180831161330b57829003601f168201915b50505050508152602001600382018054613341906155a2565b80601f016020809104026020016040519081016040528092919081815260200182805461336d906155a2565b80156133ba5780601f1061338f576101008083540402835291602001916133ba565b820191906000526020600020905b81548152906001019060200180831161339d57829003601f168201915b5050505050815260200160048201548152602001600582016040518060c0016040529081600082015481526020016001820180546133f7906155a2565b80601f0160208091040260200160405190810160405280929190818152602001828054613423906155a2565b80156134705780601f1061344557610100808354040283529160200191613470565b820191906000526020600020905b81548152906001019060200180831161345357829003601f168201915b50505050508152602001600282018054613489906155a2565b80601f01602080910402602001604051908101604052809291908181526020018280546134b5906155a2565b80156135025780601f106134d757610100808354040283529160200191613502565b820191906000526020600020905b8154815290600101906020018083116134e557829003601f168201915b5050505050815260200160038201805461351b906155a2565b80601f0160208091040260200160405190810160405280929190818152602001828054613547906155a2565b80156135945780601f1061356957610100808354040283529160200191613594565b820191906000526020600020905b81548152906001019060200180831161357757829003601f168201915b505050505081526020016004820180546135ad906155a2565b80601f01602080910402602001604051908101604052809291908181526020018280546135d9906155a2565b80156136265780601f106135fb57610100808354040283529160200191613626565b820191906000526020600020905b81548152906001019060200180831161360957829003601f168201915b5050505050815260200160058201805461363f906155a2565b80601f016020809104026020016040519081016040528092919081815260200182805461366b906155a2565b80156136b85780601f1061368d576101008083540402835291602001916136b8565b820191906000526020600020905b81548152906001019060200180831161369b57829003601f168201915b5050505050815250508152602001600b82016040518060a0016040529081600082015481526020016001820180546136ef906155a2565b80601f016020809104026020016040519081016040528092919081815260200182805461371b906155a2565b80156137685780601f1061373d57610100808354040283529160200191613768565b820191906000526020600020905b81548152906001019060200180831161374b57829003601f168201915b50505050508152602001600282018054613781906155a2565b80601f01602080910402602001604051908101604052809291908181526020018280546137ad906155a2565b80156137fa5780601f106137cf576101008083540402835291602001916137fa565b820191906000526020600020905b8154815290600101906020018083116137dd57829003601f168201915b50505050508152602001600382018054613813906155a2565b80601f016020809104026020016040519081016040528092919081815260200182805461383f906155a2565b801561388c5780601f106138615761010080835404028352916020019161388c565b820191906000526020600020905b81548152906001019060200180831161386f57829003601f168201915b505050505081526020016004820154815250508152505081526020019060010190613268565b50505050905092915050565b6040518060a001604052806000815260200160008152602001606081526020016138e66139cc565b81526020016138f3613a1d565b81525090565b828054613905906155a2565b90600052602060002090601f016020900481019282613927576000855561396e565b82601f1061394057805160ff191683800117855561396e565b8280016001018555821561396e579182015b8281111561396d578251825591602001919060010190613952565b5b50905061397b9190613a53565b5090565b8280548282559060005260206000209081019282156139bb579160200282015b828111156139ba57825182559160200191906001019061399f565b5b5090506139c89190613a53565b5090565b604051806101000160405280600081526020016000815260200160608152602001606081526020016000815260200160608152602001613a0a613a70565b8152602001613a17613abc565b81525090565b6040518060c001604052806000815260200160608152602001600081526020016000815260200160608152602001606081525090565b5b80821115613a6c576000816000905550600101613a54565b5090565b6040518061012001604052806000815260200160608152602001606081526020016060815260200160608152602001600081526020016000815260200160608152602001606081525090565b60405180606001604052806000815260200160608152602001606081525090565b6000604051905090565b600080fd5b600080fd5b6000819050919050565b613b0481613af1565b8114613b0f57600080fd5b50565b600081359050613b2181613afb565b92915050565b600060208284031215613b3d57613b3c613ae7565b5b6000613b4b84828501613b12565b91505092915050565b613b5d81613af1565b82525050565b6000819050919050565b613b7681613b63565b82525050565b600081519050919050565b600082825260208201905092915050565b60005b83811015613bb6578082015181840152602081019050613b9b565b83811115613bc5576000848401525b50505050565b6000601f19601f8301169050919050565b6000613be782613b7c565b613bf18185613b87565b9350613c01818560208601613b98565b613c0a81613bcb565b840191505092915050565b600081519050919050565b600082825260208201905092915050565b6000819050602082019050919050565b6000613c4d8383613b54565b60208301905092915050565b6000602082019050919050565b6000613c7182613c15565b613c7b8185613c20565b9350613c8683613c31565b8060005b83811015613cb7578151613c9e8882613c41565b9750613ca983613c59565b925050600181019050613c8a565b5085935050505092915050565b600061012083016000830151613cdd6000860182613b54565b5060208301518482036020860152613cf58282613bdc565b91505060408301518482036040860152613d0f8282613bdc565b91505060608301518482036060860152613d298282613bdc565b91505060808301518482036080860152613d438282613bdc565b91505060a0830151613d5860a0860182613b54565b5060c0830151613d6b60c0860182613b54565b5060e083015184820360e0860152613d838282613bdc565b915050610100830151848203610100860152613d9f8282613bdc565b9150508091505092915050565b6000606083016000830151613dc46000860182613b54565b5060208301518482036020860152613ddc8282613bdc565b91505060408301518482036040860152613df68282613bdc565b9150508091505092915050565b600061010083016000830151613e1c6000860182613b54565b506020830151613e2f6020860182613b54565b5060408301518482036040860152613e478282613bdc565b91505060608301518482036060860152613e618282613bdc565b9150506080830151613e766080860182613b54565b5060a083015184820360a0860152613e8e8282613c66565b91505060c083015184820360c0860152613ea88282613cc4565b91505060e083015184820360e0860152613ec28282613dac565b9150508091505092915050565b600060c083016000830151613ee76000860182613b54565b5060208301518482036020860152613eff8282613bdc565b9150506040830151613f146040860182613b54565b506060830151613f276060860182613b54565b5060808301518482036080860152613f3f8282613bdc565b91505060a083015184820360a0860152613f598282613c66565b9150508091505092915050565b600060a083016000830151613f7e6000860182613b54565b506020830151613f916020860182613b6d565b5060408301518482036040860152613fa98282613bdc565b91505060608301518482036060860152613fc38282613e03565b91505060808301518482036080860152613fdd8282613ecf565b9150508091505092915050565b600060208201905081810360008301526140048184613f66565b905092915050565b61401581613af1565b82525050565b600082825260208201905092915050565b600061403782613b7c565b614041818561401b565b9350614051818560208601613b98565b61405a81613bcb565b840191505092915050565b600060c08301600083015161407d6000860182613b54565b50602083015184820360208601526140958282613bdc565b915050604083015184820360408601526140af8282613bdc565b915050606083015184820360608601526140c98282613bdc565b915050608083015184820360808601526140e38282613bdc565b91505060a083015184820360a08601526140fd8282613bdc565b9150508091505092915050565b600060a0830160008301516141226000860182613b54565b506020830151848203602086015261413a8282613bdc565b915050604083015184820360408601526141548282613bdc565b9150506060830151848203606086015261416e8282613bdc565b91505060808301516141836080860182613b54565b508091505092915050565b600060e0820190506141a3600083018a61400c565b6141b0602083018961400c565b81810360408301526141c2818861402c565b905081810360608301526141d6818761402c565b90506141e5608083018661400c565b81810360a08301526141f78185614065565b905081810360c083015261420b818461410a565b905098975050505050505050565b61422281613b63565b82525050565b6000610100830160008301516142416000860182613b54565b5060208301516142546020860182613b54565b506040830151848203604086015261426c8282613bdc565b915050606083015184820360608601526142868282613bdc565b915050608083015161429b6080860182613b54565b5060a083015184820360a08601526142b38282613c66565b91505060c083015184820360c08601526142cd8282613cc4565b91505060e083015184820360e08601526142e78282613dac565b9150508091505092915050565b600060c08301600083015161430c6000860182613b54565b50602083015184820360208601526143248282613bdc565b91505060408301516143396040860182613b54565b50606083015161434c6060860182613b54565b50608083015184820360808601526143648282613bdc565b91505060a083015184820360a086015261437e8282613c66565b9150508091505092915050565b600060a0820190506143a0600083018861400c565b6143ad6020830187614219565b81810360408301526143bf818661402c565b905081810360608301526143d38185614228565b905081810360808301526143e781846142f4565b90509695505050505050565b600081519050919050565b600082825260208201905092915050565b6000819050602082019050919050565b600060a0830160008301516144376000860182613b54565b50602083015161444a6020860182613b6d565b50604083015184820360408601526144628282613bdc565b9150506060830151848203606086015261447c8282613e03565b915050608083015184820360808601526144968282613ecf565b9150508091505092915050565b60006144af838361441f565b905092915050565b6000602082019050919050565b60006144cf826143f3565b6144d981856143fe565b9350836020820285016144eb8561440f565b8060005b85811015614527578484038952815161450885826144a3565b9450614513836144b7565b925060208a019950506001810190506144ef565b50829750879550505050505092915050565b6000602082019050818103600083015261455381846144c4565b905092915050565b600080fd5b7f4e487b7100000000000000000000000000000000000000000000000000000000600052604160045260246000fd5b61459882613bcb565b810181811067ffffffffffffffff821117156145b7576145b6614560565b5b80604052505050565b60006145ca613add565b90506145d6828261458f565b919050565b600067ffffffffffffffff8211156145f6576145f5614560565b5b602082029050602081019050919050565b600080fd5b600080fd5b600080fd5b61461f81613b63565b811461462a57600080fd5b50565b60008135905061463c81614616565b92915050565b600080fd5b600067ffffffffffffffff82111561466257614661614560565b5b61466b82613bcb565b9050602081019050919050565b82818337600083830152505050565b600061469a61469584614647565b6145c0565b9050828152602081018484840111156146b6576146b5614642565b5b6146c1848285614678565b509392505050565b600082601f8301126146de576146dd61455b565b5b81356146ee848260208601614687565b91505092915050565b600067ffffffffffffffff82111561471257614711614560565b5b602082029050602081019050919050565b6000614736614731846146f7565b6145c0565b9050808382526020820190506020840283018581111561475957614758614607565b5b835b81811015614782578061476e8882613b12565b84526020840193505060208101905061475b565b5050509392505050565b600082601f8301126147a1576147a061455b565b5b81356147b1848260208601614723565b91505092915050565b600061012082840312156147d1576147d061460c565b5b6147dc6101206145c0565b905060006147ec84828501613b12565b600083015250602082013567ffffffffffffffff8111156148105761480f614611565b5b61481c848285016146c9565b602083015250604082013567ffffffffffffffff8111156148405761483f614611565b5b61484c848285016146c9565b604083015250606082013567ffffffffffffffff8111156148705761486f614611565b5b61487c848285016146c9565b606083015250608082013567ffffffffffffffff8111156148a05761489f614611565b5b6148ac848285016146c9565b60808301525060a06148c084828501613b12565b60a08301525060c06148d484828501613b12565b60c08301525060e082013567ffffffffffffffff8111156148f8576148f7614611565b5b614904848285016146c9565b60e08301525061010082013567ffffffffffffffff81111561492957614928614611565b5b614935848285016146c9565b6101008301525092915050565b6000606082840312156149585761495761460c565b5b61496260606145c0565b9050600061497284828501613b12565b600083015250602082013567ffffffffffffffff81111561499657614995614611565b5b6149a2848285016146c9565b602083015250604082013567ffffffffffffffff8111156149c6576149c5614611565b5b6149d2848285016146c9565b60408301525092915050565b600061010082840312156149f5576149f461460c565b5b614a006101006145c0565b90506000614a1084828501613b12565b6000830152506020614a2484828501613b12565b602083015250604082013567ffffffffffffffff811115614a4857614a47614611565b5b614a54848285016146c9565b604083015250606082013567ffffffffffffffff811115614a7857614a77614611565b5b614a84848285016146c9565b6060830152506080614a9884828501613b12565b60808301525060a082013567ffffffffffffffff811115614abc57614abb614611565b5b614ac88482850161478c565b60a08301525060c082013567ffffffffffffffff811115614aec57614aeb614611565b5b614af8848285016147ba565b60c08301525060e082013567ffffffffffffffff811115614b1c57614b1b614611565b5b614b2884828501614942565b60e08301525092915050565b600060c08284031215614b4a57614b4961460c565b5b614b5460c06145c0565b90506000614b6484828501613b12565b600083015250602082013567ffffffffffffffff811115614b8857614b87614611565b5b614b94848285016146c9565b6020830152506040614ba884828501613b12565b6040830152506060614bbc84828501613b12565b606083015250608082013567ffffffffffffffff811115614be057614bdf614611565b5b614bec848285016146c9565b60808301525060a082013567ffffffffffffffff811115614c1057614c0f614611565b5b614c1c8482850161478c565b60a08301525092915050565b600060a08284031215614c3e57614c3d61460c565b5b614c4860a06145c0565b90506000614c5884828501613b12565b6000830152506020614c6c8482850161462d565b602083015250604082013567ffffffffffffffff811115614c9057614c8f614611565b5b614c9c848285016146c9565b604083015250606082013567ffffffffffffffff811115614cc057614cbf614611565b5b614ccc848285016149de565b606083015250608082013567ffffffffffffffff811115614cf057614cef614611565b5b614cfc84828501614b34565b60808301525092915050565b6000614d1b614d16846145db565b6145c0565b90508083825260208201905060208402830185811115614d3e57614d3d614607565b5b835b81811015614d8557803567ffffffffffffffff811115614d6357614d6261455b565b5b808601614d708982614c28565b85526020850194505050602081019050614d40565b5050509392505050565b600082601f830112614da457614da361455b565b5b8135614db4848260208601614d08565b91505092915050565b60008060408385031215614dd457614dd3613ae7565b5b600083013567ffffffffffffffff811115614df257614df1613aec565b5b614dfe85828601614d8f565b9250506020614e0f85828601613b12565b9150509250929050565b600067ffffffffffffffff821115614e3457614e33614560565b5b602082029050602081019050919050565b600060c08284031215614e5b57614e5a61460c565b5b614e6560c06145c0565b90506000614e7584828501613b12565b600083015250602082013567ffffffffffffffff811115614e9957614e98614611565b5b614ea5848285016146c9565b602083015250604082013567ffffffffffffffff811115614ec957614ec8614611565b5b614ed5848285016146c9565b604083015250606082013567ffffffffffffffff811115614ef957614ef8614611565b5b614f05848285016146c9565b606083015250608082013567ffffffffffffffff811115614f2957614f28614611565b5b614f35848285016146c9565b60808301525060a082013567ffffffffffffffff811115614f5957614f58614611565b5b614f65848285016146c9565b60a08301525092915050565b600060a08284031215614f8757614f8661460c565b5b614f9160a06145c0565b90506000614fa184828501613b12565b600083015250602082013567ffffffffffffffff811115614fc557614fc4614611565b5b614fd1848285016146c9565b602083015250604082013567ffffffffffffffff811115614ff557614ff4614611565b5b615001848285016146c9565b604083015250606082013567ffffffffffffffff81111561502557615024614611565b5b615031848285016146c9565b606083015250608061504584828501613b12565b60808301525092915050565b600060e082840312156150675761506661460c565b5b61507160e06145c0565b9050600061508184828501613b12565b600083015250602061509584828501613b12565b602083015250604082013567ffffffffffffffff8111156150b9576150b8614611565b5b6150c5848285016146c9565b604083015250606082013567ffffffffffffffff8111156150e9576150e8614611565b5b6150f5848285016146c9565b606083015250608061510984828501613b12565b60808301525060a082013567ffffffffffffffff81111561512d5761512c614611565b5b61513984828501614e45565b60a08301525060c082013567ffffffffffffffff81111561515d5761515c614611565b5b61516984828501614f71565b60c08301525092915050565b600061518861518384614e19565b6145c0565b905080838252602082019050602084028301858111156151ab576151aa614607565b5b835b818110156151f257803567ffffffffffffffff8111156151d0576151cf61455b565b5b8086016151dd8982615051565b855260208501945050506020810190506151ad565b5050509392505050565b600082601f8301126152115761521061455b565b5b8135615221848260208601615175565b91505092915050565b6000806040838503121561524157615240613ae7565b5b600061524f85828601613b12565b925050602083013567ffffffffffffffff8111156152705761526f613aec565b5b61527c858286016151fc565b9150509250929050565b600081519050919050565b600082825260208201905092915050565b6000819050602082019050919050565b600060c0830160008301516152ca6000860182613b54565b50602083015184820360208601526152e28282613bdc565b915050604083015184820360408601526152fc8282613bdc565b915050606083015184820360608601526153168282613bdc565b915050608083015184820360808601526153308282613bdc565b91505060a083015184820360a086015261534a8282613bdc565b9150508091505092915050565b600060a08301600083015161536f6000860182613b54565b50602083015184820360208601526153878282613bdc565b915050604083015184820360408601526153a18282613bdc565b915050606083015184820360608601526153bb8282613bdc565b91505060808301516153d06080860182613b54565b508091505092915050565b600060e0830160008301516153f36000860182613b54565b5060208301516154066020860182613b54565b506040830151848203604086015261541e8282613bdc565b915050606083015184820360608601526154388282613bdc565b915050608083015161544d6080860182613b54565b5060a083015184820360a086015261546582826152b2565b91505060c083015184820360c086015261547f8282615357565b9150508091505092915050565b600061549883836153db565b905092915050565b6000602082019050919050565b60006154b882615286565b6154c28185615291565b9350836020820285016154d4856152a2565b8060005b8581101561551057848403895281516154f1858261548c565b94506154fc836154a0565b925060208a019950506001810190506154d8565b50829750879550505050505092915050565b6000602082019050818103600083015261553c81846154ad565b905092915050565b7f4e487b7100000000000000000000000000000000000000000000000000000000600052603260045260246000fd5b7f4e487b7100000000000000000000000000000000000000000000000000000000600052602260045260246000fd5b600060028204905060018216806155ba57607f821691505b602082108114156155ce576155cd615573565b5b50919050565b7f4e487b7100000000000000000000000000000000000000000000000000000000600052601160045260246000fd5b600061560e82613af1565b91507fffffffffffffffffffffffffffffffffffffffffffffffffffffffffffffffff821415615641576156406155d4565b5b60018201905091905056fea26469706673582212200d5cad1b04aad9e88b75d523a9a0767f03d30b6536c02fe25bcb87691f27c63264736f6c634300080b0033",
  "immutableReferences": {},
  "source": "// SPDX-License-Identifier: MIT\r\npragma solidity >=0.4.22 <0.9.0;\r\nimport \"./Remplissage.sol\";\r\n\r\ncontract RetraitCol is Remplissage {\r\n    //*********************************************************************************/\r\n    //second app\r\n    //******************************************************************************/\r\n    Operation[] public operationagrs;\r\n    OperationTank0[] public operationTankR;\r\n\r\n    function RetraitOperationTank(\r\n        OperationTank0[] memory operationTank,\r\n        uint256 count\r\n    ) public returns (OperationTank0[] memory tt0) {\r\n        for (uint256 i = 0; i < count; i++) {\r\n            operationTankR.push(operationTank[i]);\r\n        }\r\n        return (operationTankR);\r\n    }\r\n\r\n    //get all operations\r\n\r\n    function getOperationTanks()\r\n        public\r\n        view\r\n        returns (OperationTank0[] memory result)\r\n    {\r\n        return operationTankR;\r\n    }\r\n\r\n    function getOperationbycode(uint256 code, Operation[] memory operation2)\r\n        public\r\n        returns (Operation[] memory operationtwo)\r\n    {\r\n        for (uint256 i = 0; i < operationTankR.length; i++) {\r\n            if (operationTankR[i].operation.code == code) {\r\n                for (uint256 j = 0;j < operationTankR[i].tank.codeTank.length;j++)\r\n                   {\r\n                    for (uint256 f = 0; f < operation2.length; f++) {\r\n                        if (\r\n                            operation2[f].code ==\r\n                            operationTankR[i].tank.codeTank[j]\r\n                        ) {\r\n                            operationagrs.push(operation2[f]);\r\n                        }\r\n                    }\r\n                }\r\n            }\r\n        }\r\n        return operationagrs;\r\n    }\r\n\r\n    function getOperationFromAgrsbycode(uint256 code)\r\n        public\r\n        view\r\n        returns (OperationTank0 memory operation)\r\n    {\r\n        for (uint256 i = 0; i < operationTankR.length; i++) {\r\n            if (operationTankR[i].operation.code == code) {\r\n                return operationTankR[i];\r\n            }\r\n        }\r\n    }\r\n}\r\n",
  "sourcePath": "C:\\Users\\Nour\\Desktop\\PFE_Project2022\\PFE-FrontEnd\\contracts\\RetraitCol.sol",
  "compiler": {
    "name": "solc",
    "version": "0.8.11+commit.d7f03943.Emscripten.clang"
  },
  "schemaVersion": "3.4.6",
  "updatedAt": "2022-06-01T11:55:37.866Z",
  "networkType": "ethereum",
  "devdoc": {
    "kind": "dev",
    "methods": {},
    "version": 1
  },
  "userdoc": {
    "kind": "user",
    "methods": {},
    "version": 1
  }
}